:100000000C9497030C94C8030C94C8030C94C80375
:100010000C94C8030C94C8030C94C8030C94C80334
:100020000C94C8030C94C8030C94C8030C94C80324
:100030000C94C8030C94C8030C94C8030C94C80314
:100040000C94C8030C94C8030C94C8030C94C80304
:100050000C94C8030C94C8030C94C8030C94A23BE2
:100060000C94C8030C94783B0C944E3B0C94C8033E
:100070000C94C8030C94C8030C94C8030C94C803D4
:100080000C94C8030C94C8030C94C8030C94C803C4
:100090000C94C8030C94C8030C94C8030C94C803B4
:1000A0000C94C8030C94C8030C94C8030C94C803A4
:1000B0000C94C8030C94C8030C94C8030C94C80394
:1000C0000C94C8030C94C8030C94C8030C94243BF0
:1000D0000C94FA3A0C94C8030C94D03A0C94A63AB7
:1000E0000C94C8030C9402370C94130A0C94D9474F
:1000F0000C9427060C94BD4A0C9451230C944B4A43
:100100000C9425230C9453060C9489230C941123EE
:100110000C94CE1B0C9401060C9462460C94712333
:100120000C94C2120C94AC080C94E3230C942D2371
:100130000C9419230C9445060C9444110C944D23F3
:100140000C94BA080C943B050C94B30E0C94F5086F
:100150000C94EC3B0C947B190C941C060C94A40C92
:100160000C944B200C948D040C94F1220C943B25A0
:100170000C9416390C94F6090C9467180C94400AE8
:100180000C94F9080C94F5220C94B1080C946B04AF
:100190000C949E080C9449060C94420B0C94A208F3
:1001A0000C945C040C94F31A0C94B1090C94AD23D8
:1001B0000C944A0A0C94650B0C9439110C9431067A
:1001C0000C9475230C9480340C941F100C9404121E
:1001D0000C94A1230C94AE080C944C180C94A40914
:1001E0000C94EC170C9416040C9410090C94EA0F60
:1001F0000C9479230C940D1B0C945E0A0C94080B40
:100200000C948D370C94320C0C94D5100C94A523BF
:100210000C9455230C9449150C946D230C94571091
:100220000C9402150C9464240C945E350C9484098F
:100230000C94D9490C9415040C943C360C94EE1093
:100240000C948D230C946A390C9429230C94060683
:100250000C9499230C94F9220C9467080C94861141
:100260000C9449240C9435230C9411040C9415110E
:100270000C948B0A0C94C31C0C94CE110C94F5486E
:100280000C9449470C94203C0C9449230C94880806
:100290000C9459370C94FD220C9416240C943123A1
:1002A0000C94910C0C94D7230C9467490C94A110D6
:1002B0000C94F2450C94B5230C9457060C948123AE
:1002C0000C9495230C944D060C94AF0E0C945A117B
:1002D0000C9439230C9409090C94280B0C945A1093
:1002E0000C9491230C94E4350C94D1120C94A00A34
:1002F0000C941D230C94D6200C9437060C94C91A28
:100300000C9401230C9431240C9421230C94592334
:100310000C941C1D0C9477450C940D230C946511C2
:100320000C94EF440C9461230C9469360C941C1CBF
:100330000C94B9230C947D080C9469230C947011CF
:100340000C9441230C949D230C943F060C94790B40
:100350000C942D060C9445230C94CA370C94B123AD
:100360000C94150A0C94AF0C0C943B060C945D2372
:100370000C9466240C9415230C9420060C945A2497
:100380000C94D7170C94AA1A0C9420240C94A9232B
:100390000C9424060C947B110C9443100C947F0451
:1003A0000C94EC1B0C9451080C947D230C94880540
:1003B0000C9469480C9465230C94C9160C9427245A
:1003C0000C9418060C940F240C94380A0C94D24602
:1003D0000C941D150C94A4150C9409230C94D81F8F
:1003E0000C9405230C940E120C94D2190C948A3799
:1003F0000C940D120C94270A0C945D100C94981C0C
:100400000C94510C0C94CC0B0C946B150C94673A17
:100410000C9446110C943D230C9485230C94F10804
:100420000C94532400C0C101C30302C2C60607C70F
:1004300005C5C404CC0C0DCD0FCFCE0E0ACACB0B14
:10044000C90908C8D81819D91BDBDA1A1EDEDF1F44
:10045000DD1D1CDC14D4D515D71716D6D21213D334
:1004600011D1D010F03031F133F3F23236F6F737E4
:10047000F53534F43CFCFD3DFF3F3EFEFA3A3BFBD4
:1004800039F9F83828E8E929EB2B2AEAEE2E2FEF84
:100490002DEDEC2CE42425E527E7E62622E2E323F4
:1004A000E12120E0A06061A163A3A26266A6A76724
:1004B000A56564A46CACAD6DAF6F6EAEAA6A6BAB94
:1004C00069A9A86878B8B979BB7B7ABABE7E7FBFC4
:1004D0007DBDBC7CB47475B577B7B67672B2B373B4
:1004E000B17170B050909151935352929656579764
:1004F000559594549C5C5D9D5F9F9E5E5A9A9B5B54
:1005000099595898884849894B8B8A4A4E8E8F4F03
:100510008D4D4C8C44848545874746868242438373
:100520004181804000C1814001C0804101C08041C3
:1005300000C1814001C0804100C1814000C18140B3
:1005400001C0804101C0804100C1814000C18140A3
:1005500001C0804100C1814001C0804101C0804193
:1005600000C1814001C0804100C1814000C1814083
:1005700001C0804100C1814001C0804101C0804173
:1005800000C1814000C1814001C0804101C0804163
:1005900000C1814001C0804100C1814000C1814053
:1005A00001C0804101C0804100C1814000C1814043
:1005B00001C0804100C1814001C0804101C0804133
:1005C00000C1814000C1814001C0804101C0804123
:1005D00000C1814001C0804100C1814000C1814013
:1005E00001C0804100C1814001C0804101C0804103
:1005F00000C1814001C0804100C1814000C18140F3
:1006000001C0804101C0804100C1814000C18140E2
:1006100001C0804100C1814001C0804101C08041D2
:1006200000C1814000002100240027002A002D0085
:100630003000330001010000040107010A0100003D
:100640002200250028002B002E003100340002017A
:100650000000050108010B0105050505070508084F
:100660000808020202020A0A08080404040401013C
:100670000101010101010303030303030303040751
:1006800007070C0C0C0C0C0C0C0C020202020606E8
:100690000606060606060B0B0B0B0B0B0B0B0102DB
:1006A0001020200808102040102040800201020184
:1006B000080402010102040810204080804020103C
:1006C0000804020180040201804020100804020195
:1006D00008040201010204081020408001020408FD
:1006E0001020408000000A0B02090C0D0E080703C1
:1006F00004010000000000000000000000000000F5
:1007000000000000000000000000000000000000E9
:1007100012111000000000000000000000000000A6
:1007200000000000000000000000203CEC3B112411
:100730001FBECFEFD1E2DEBFCDBF00E00CBF1AE09D
:10074000A0E0B2E0EAEEF2EA00E00BBF02C00790E0
:100750000D92A63BB107D9F726E1A6EBBAE001C09E
:100760001D92A235B207E1F713E0C6E9D3E000E03D
:1007700006C021970109802FFE010E94934CC539C4
:10078000D10780E00807A9F70E94FD400C9463514F
:100790000C94000020911E1630911F16121613069D
:1007A0005CF4809116169091171697FD05C0823063
:1007B000910534F004971CF16FEF7FEFCB010895A2
:1007C000E0911C16F0911D16809120169091211633
:1007D000E80FF91F608170E090E080E0215031095E
:1007E00030931F1620931E1620912016309121164B
:1007F0002F5F3F4F3093211620932016089580914C
:10080000201690912116880F991FE0911C16F091E7
:100810001D16E80FF91F60817181DECF8CBD9DBD73
:100820000895FC01818D928D08950895AF92BF9235
:10083000CF92DF92EF92FF920F931F93CF93DF93AC
:100840006C017B018B01040F151FEB015E01AE18DB
:10085000BF08C017D10759F06991D601ED91FC91FD
:100860000190F081E02DC6011995892B79F7C5011A
:10087000DF91CF911F910F91FF90EF90DF90CF907C
:10088000BF90AF900895FC01A089B1898C91A68991
:10089000B78982FD0FC09C91818D8F5F8F73228DF0
:1008A000821749F0A18DAE0FBF2FB11D5D969C93AD
:1008B000818F08958C910895FC01538D448D252FCF
:1008C00030E0842F90E0821B930B541710F0CF96EA
:1008D000089501970895FC01918D828D981761F01C
:1008E000A28DAE0FBF2FB11D5D968C91928D9F5F33
:1008F0009F73928F90E008958FEF9FEF0895FC0112
:10090000918D828D981731F0828DE80FF11D858DC4
:1009100090E008958FEF9FEF0895FC01918D228D57
:10092000892F90E0805C9F4F821B91098F739927DC
:10093000089586EE92E10E948D0421E0892B09F44E
:1009400020E0822F089586E591E10E948D0421E048
:10095000892B09F420E0822F089581E790E10E941D
:100960008D0421E0892B09F420E0822F0895CF9295
:10097000DF92EF92FF921F93CF93DF93EC016A0116
:100980007B01122FE889F98982E08083C11481EE0E
:10099000D806E104F104A1F060E079E08DE390E095
:1009A000A70196010E94624C215031094109510969
:1009B0005695479537952795211580E1380798F08A
:1009C000E889F989108260E874E88EE190E0A70177
:1009D00096010E94624C21503109410951095695F6
:1009E000479537952795EC85FD853083EE85FF8506
:1009F0002083188EEC89FD891083EA89FB89808128
:100A000080618083EA89FB89808188608083EA89AC
:100A1000FB89808180688083EA89FB8980818F7D62
:100A20008083DF91CF911F91FF90EF90DF90CF9067
:100A30000895FC01A48DA80FB92FB11DA35ABF4F73
:100A40002C91848D90E001968F739927848FA689CD
:100A5000B7892C93A089B1898C91837080648C9321
:100A6000938D848D981306C00288F389E02D8081D0
:100A70008F7D80830895EF92FF920F931F93CF9302
:100A8000DF93EC0181E0888F9B8D8C8D98131AC0C9
:100A9000E889F989808185FF15C09FB7F894EE89B0
:100AA000FF896083E889F98980818370806480830D
:100AB0009FBF81E090E0DF91CF911F910F91FF9058
:100AC000EF900895F62E0B8D10E00F5F1F4F0F7300
:100AD0001127E02E8C8D8E110CC00FB607FCFACFBB
:100AE000E889F989808185FFF5CFCE010E9419053B
:100AF000F1CFEB8DEC0FFD2FF11DE35AFF4FF0828C
:100B00009FB7F8940B8FEA89FB8980818062CFCFF1
:100B1000CF93DF93EC01888D8823B9F0AA89BB8934
:100B2000E889F9898C9185FD03C0808186FD0DC01F
:100B30000FB607FCF7CF8C9185FFF2CF808185FF40
:100B4000EDCFCE010E941905E9CFDF91CF91089535
:100B500080E090E0892B29F00E94AD0481110E9471
:100B6000000080E090E0892B49F080E090E0892B44
:100B700029F00E94000081110E94000080E090E0B6
:100B8000892B29F00E94A30481110E94000080E0BB
:100B900090E0892B29F00E94990481110C940000A7
:100BA0000895282F30E0F901EC51F94F9491F901A3
:100BB000E256F94F4491285A394FF90124912223E2
:100BC00009F435C0992311F191509231F8F4E92FCD
:100BD000F0E08827E151FA4F8F4F0C94934C200698
:100BE0002406010618061C06060627062D063106F1
:100BF00037063B063F064506490606064D065306E0
:100C00005706809180008F7780938000E22FF0E07C
:100C1000EE0FFF1FE25CF94FA591B4918FB7F894E6
:100C2000EC91611148C040954E234C938FBF0895BD
:100C3000809180008F7DE8CF80918000877FE4CF16
:100C400084B58F7784BDE2CF84B58F7DFBCF809153
:100C5000B0008F778093B000D9CF8091B0008F7DA6
:100C6000F9CF809190008F7780939000CFCF8091C3
:100C700090008F7DF9CF80919000877FF5CF809194
:100C8000A0008F778093A000C1CF8091A0008F7DBE
:100C9000F9CF8091A000877FF5CF809120018F77D9
:100CA00080932001B3CF809120018F7DF9CF809177
:100CB0002001877FF5CF4E2BB8CFCF93DF9390E005
:100CC000FC01E256F94F2491885A994FFC01849116
:100CD0008823D1F090E0880F991FFC01EC5DF94F5B
:100CE000A591B491FC01E25CF94FC591D4916111D9
:100CF0000EC09FB7F8948C91E22FE0958E238C93D1
:100D00002881E223E8839FBFDF91CF9108958FB7B9
:100D1000F894EC91E22BEC938FBFF6CF3FB7F894A9
:100D20008091C10A9091C20AA091C30AB091C40AED
:100D300026B5A89B05C02F3F19F00196A11DB11D36
:100D40003FBFBA2FA92F982F8827BC01CD01620F72
:100D5000711D811D911D42E0660F771F881F991F2D
:100D60004A95D1F708958F929F92AF92BF92CF92FA
:100D7000DF92EF92FF926B017C010E948E064B0185
:100D80005C01C114D104E104F104B9F00E948E06A3
:100D9000681979098A099B09683E734081059105A4
:100DA00080F321E0C21AD108E108F10888EE880E2C
:100DB00083E0981EA11CB11CE4CFFF90EF90DF9060
:100DC000CF90BF90AF909F908F9008952FB7F894D9
:100DD0006091BD0A7091BE0A8091BF0A9091C00ACD
:100DE0002FBF0895FC0120812EBD9B0121503109A8
:100DF00041F051810DB407FEFDCF4EB55EBD41936C
:100E0000F5CF61507109860F971F0DB407FEFDCF16
:100E10002EB5FC0120830895E091B80AF091B90A3B
:100E200080819091B70A892B80830895E091B80A58
:100E3000F091B90A90818091B70A809589238083C7
:100E400008958EBD00000DB407FEFDCF8EB5089548
:100E5000AF92BF92CF92DF92EF92FF920F931F93C8
:100E6000CF93DF9300D000D01F921F92CDB7DEB793
:100E70008C017B016A0180916F108333E1F458018A
:100E8000A40EB51EA016B10609F46FC00E94160785
:100E900080EF0E942107812F0E942107802F0E944E
:100EA00021070F5F1F4FF70181917F010E942107EA
:100EB0000E940C07E7CF5B01A40EB51E8433C1F47A
:100EC0000E94160719830A838D2D80688B83CC823C
:100ED00064E070E0CE0101960E94F206AE14BF04F9
:100EE00009F441C0F70181917F010E942107F6CFEB
:100EF0000E9416070F3F110509F028F419820A8392
:100F000084E08B830CC017FD17C019820A8333E07D
:100F1000169507953A95E1F7007E0C600B8386E005
:100F2000C816D104A0F5F701DE011496EA15FB05F9
:100F300099F081918D93FACFC80126E09695879517
:100F40002A95E1F7807E19830A830115104C10F46D
:100F50008461D7CF8C61D5CFB6016D5F7F4FCE0155
:100F600001960E94F2060E940C07C60128960FB651
:100F7000F894DEBF0FBECDBFDF91CF911F910F91CF
:100F8000FF90EF90DF90CF90BF90AF90089563E017
:100F900070E0CE0101960E94F206F70181917F0177
:100FA0000E942107AE14BF04C1F7DDCFCF93DF93BA
:100FB0001F92CDB7DEB7898341E050E0BE016F5F7D
:100FC0007F4F90E080E00E9428070F90DF91CF9143
:100FD000089590E020916F10233339F40C96982FE8
:100FE000990F990F990F80E008954896F8CFDA018C
:100FF000E091BB0AF0E0FE2FEE27E60FF71F90E02E
:10100000982F8827A901BD018E0F9F1F0C942807D8
:10101000CF93DF931F921F92CDB7DEB779836A8398
:1010200022E030E0AE014F5F5F4F60E170E00E9470
:10103000F7070F900F90DF91CF910895CF93DF9333
:101040001F921F92CDB7DEB779836A8322E030E02A
:10105000AE014F5F5F4F64E070E00E94F7070F90B2
:101060000F90DF91CF910895CF93DF931F92CDB76B
:10107000DEB72091BB0A30E0322F2227260F371F20
:1010800090E0982F8827498341E050E0BE016F5FD0
:101090007F4F820F931F0E9428070F90DF91CF91FF
:1010A0000895CF93DF931F92CDB7DEB76983DC013C
:1010B000ED91FC910280F381E02D41E050E0BE0112
:1010C0006F5F7F4F19950F90DF91CF910895CF9368
:1010D000DF931F92CDB7DEB76983DC01ED91FC9100
:1010E0000280F381E02D41E050E0BE016F5F7F4F51
:1010F00019950F90DF91CF910895FC019485FB0124
:101100008485981303C081E0983008F080E008954A
:10111000CF93DF931F92CDB7DEB76983DC01ED91EA
:10112000FC910280F381E02D41E050E0BE016F5F51
:101130007F4F19950F90DF91CF910895FC0176872D
:1011400065870895DC01ED91FC91068CF78DE02D0B
:10115000199591E089270895862F089581E08627C3
:10116000089521E0FC018485883008F020E0822F7A
:1011700008950895FF920F931F93CF93DF93EB0190
:10118000FC01178A168A2A81211109C02B8121119D
:1011900006C02C81211103C02D81222301F14115AC
:1011A0005105E9F08A01FC01F08C80E591E00E9494
:1011B0000E04AE014E5F5F4F24E030E06CE070E063
:1011C0008F2D0E94F707B8018F2D0E94080881E03B
:1011D00090E0DF91CF911F910F91FF90089580E0F3
:1011E000F7CFFC01848595850895FC018489958954
:1011F00008952CE133E0FC0131832083FB01408919
:10120000518962897389FC014283538364837583A6
:101210000895DC01ED91FC91048CF58DE02D19947D
:101220006F927F928F929F92AF92BF92CF92DF92F6
:10123000EF92FF920F931F93CF93DF93FA018901EF
:10124000DC015A966D907C90C12CD12C76013097A0
:10125000C1F02081318142815381A8EEB3E00E9428
:10126000574C6B017C01648175818681978128EEE2
:1012700033E040E050E00E94624CC20ED31EE41EF8
:10128000F51E0E94E6064B015C01F3018285938501
:10129000DC01ED91FC910084F185E02D1995EC01C4
:1012A00080179107BCF40E94E606681979098A093B
:1012B0009B096C157D058E059F0560F4F301828501
:1012C0009385DC01ED91FC910688F789E02D199555
:1012D0008111DBCF209741F484E790E0909347168B
:1012E00080934616CFEFDFEFCE01DF91CF911F91B4
:1012F0000F91FF90EF90DF90CF90BF90AF909F90B5
:101300008F907F906F900895CF93DF93DC015A9672
:10131000CD91DC918A859B85DC01ED91FC91008467
:10132000F185E02D1995892B51F08A859B85DC018B
:10133000ED91FC910284F385E02D1995EBCF90E0BF
:1013400080E0DF91CF910895DC015A96ED91FC91F8
:1013500082859385DC01ED91FC910488F589E02D6F
:101360001994EF92FF920F931F93CF93DF9300D0C6
:1013700000D0CDB7DEB7FC01A28DB38D1A968D914A
:101380009C911B97FC0120813181F901E684F7844F
:1013900012964D915C9113972CE133E03A832983A7
:1013A00016960D911D912D913C9119970B831C83DD
:1013B0002D833E83BE016F5F7F4FF701199521E0BA
:1013C00030E0892B11F030E020E088279927821B3C
:1013D000930B26960FB6F894DEBF0FBECDBFDF91FC
:1013E000CF911F910F91FF90EF900895FA01DB01CB
:1013F0009C918081981305C011969C9181819817CA
:1014000049F08FEE9BE290934716809346168FEF3C
:101410009FEF08958281882319F083818111F1CF94
:1014200090E080E00895CA010895DC015A96ED919C
:10143000FC9182859385DC01ED91FC910288F38912
:10144000E02D1995BC01990F880B990B0895DC01CB
:101450005A96ED91FC9182859385DC01ED91FC918A
:101460000280F381E02D1995BC0190E080E00895A1
:101470009B0126503109FC0134832583CB0108955B
:10148000FC01208130E0322F22278181820F932FAF
:10149000911D0895DC01FB0115968C9115978083B1
:1014A00014968C9114978183128213828C91868377
:1014B00012968C91878388E090E008950F931F9394
:1014C000CF93DF93F801EC01AA8DBB8DCD91DC9118
:1014D0001197CF3FDC07D9F021961196DC93CE937C
:1014E00011967C91119770837C9171831282138283
:1014F000DC018C91868367835087418732872387FD
:101500008CE090E0DF91CF911F910F91089511969B
:101510001C921E92E5CF683F710530F4FC01718387
:10152000608390E080E008956F3F7105B9F386E134
:1015300090E090934716809346168FEF9FEF0895A3
:101540006F927F928F929F92AF92BF92CF92DF92D3
:10155000EF92FF920F931F93CF93DF93FA018901CC
:10156000DC015A966D907C90C12CD12C760130977D
:10157000C1F02081318142815381A8EEB3E00E9405
:10158000574C6B017C01648175818681978128EEBF
:1015900033E040E050E00E94624CC20ED31EE41ED5
:1015A000F51E0E94E6064B015C01F30186819781DE
:1015B000DC01ED91FC910084F185E02D1995EC01A1
:1015C000801791075CF40E94E606681979098A0978
:1015D0009B096C157D058E059F0538F3209741F416
:1015E00084E790E09093471680934616CFEFDFEFA5
:1015F000CE01DF91CF911F910F91FF90EF90DF907F
:10160000CF90BF90AF909F908F907F906F900895F4
:10161000CF93DF93DC015A96CD91DC918E819F812F
:10162000DC01ED91FC910084F185E02D1995892B69
:1016300051F08E819F81DC01ED91FC910284F38554
:10164000E02D1995EBCF90E080E0DF91CF910895E8
:10165000CF93DF93DC015A96CD91DC91EE81FF812F
:101660008289938997FD03C061E00E94D1058E8134
:101670009F81DC01ED91FC910288F389E02DDF91DF
:10168000CF911994CF93DF93DC015A96CD91DC91E1
:101690008E819F812C813D81488159816A817B8126
:1016A000DC01ED91FC910088F189E02D1995EE8126
:1016B000FF818289938997FD03C060E00E94D10574
:1016C00090E080E0DF91CF910895FB018081FA01E5
:1016D0009081891759F0882349F083EF9BE290931A
:1016E0004716809346168FEF9FEF089590E080E0B5
:1016F00008958F929F92AF92BF92CF92DF92EF9216
:10170000FF920F931F93CF93DF936A01DC015A96E8
:10171000ED91FC91068117817B01D0E0C0E0CC15F2
:10172000DD0528F50E94E606F8016087718782874B
:101730009387D801ED91FC910284F385E02DC801D7
:10174000199597FF24C00E94E606F80180849184D1
:10175000A284B384681979098A099B0984809580D9
:10176000A680B780681579058A059B0510F3BE0130
:1017700090E080E0DF91CF911F910F91FF90EF906B
:10178000DF90CF90BF90AF909F908F900895D7013A
:101790008D937D012196C3CFCF92DF92EF92FF927E
:1017A0000F931F93CF93DF937B016A01DC015A965D
:1017B000CD91DC91EE81FF818289938997FD03C0F1
:1017C00061E00E94D1050E811F81F8018089918915
:1017D00097FD07C061E00E94D10583EC90E001977E
:1017E000F1F781E0D80154968C938E819F81DC01C2
:1017F000ED91FC910280F381E02DA601B7011995CE
:101800006C01F12CE12C0E811F81F80184859585F6
:10181000DC01ED91FC910680F781E02D1995F8012E
:101820008089918997FD07C0E3ECF0E03197F1F7EB
:1018300060E00E94D105D80154961C92EE81FF8190
:101840008289938997FD03C060E00E94D105C7019A
:10185000B601DF91CF911F910F91FF90EF90DF9034
:10186000CF900895FB0180819181029791838083BD
:1018700090E080E00895DC01680F791F8FEF9FEF03
:10188000A617B70769F02D91292730E0F901EC5D23
:10189000FA4F94919827F901EC5DFB4F8491F0CFBA
:1018A0000895EF92FF920F931F93CF93DF937C01E4
:1018B000EB018A01888190E0F701208131812817AE
:1018C000390711F0892B51F5B80162507109CE0129
:1018D0000E943B0CC00FD11FFE013297208121973F
:1018E00038812327322723278217930779F0F701BE
:1018F000868182FF03C0C7010E94080B8EEE9BE227
:1019000090934716809346160FEF1FEFC801DF91A3
:10191000CF911F910F91FF90EF90089510E000E09C
:10192000F5CF0F931F93CF93DF93EC018B010E94B0
:101930003B0CC00FD11F98838983C8010296DF91A9
:10194000CF911F910F910895FC012081FB0120830D
:10195000FC018281FB01818382E090E00895683F71
:10196000710530F4FC017183608390E080E008959C
:1019700086E190E090934716809346168FEF9FEF95
:101980000895009741F0DC015896ED91FC9104A078
:10199000F5A1E02D19940895009741F0DC015896C7
:1019A000ED91FC91068CF78DE02D19940895009728
:1019B00041F0DC015896ED91FC91048CF58DE02D01
:1019C000199486E190E090934716809346168FEF26
:1019D0009FEF0895009741F0DC015896ED91FC913E
:1019E0000084F185E02D199486E190E090934716EC
:1019F000809346168FEF9FEF0895009741F0DC012A
:101A00005896ED91FC9100A0F1A1E02D199486E18A
:101A100090E090934716809346168FEF9FEF0895BE
:101A2000CF93DF93EC01288539854A855B85A8EE45
:101A3000B3E00E94574C0E94B3068C859D8582308E
:101A4000910538F0880F991F880F991F0597019706
:101A5000F1F7DF91CF9108952F923F924F925F92CD
:101A60006F927F928F929F92AF92BF92CF92DF92AE
:101A7000EF92FF920F931F93CF93DF9300D000D08C
:101A800000D01F92CDB7DEB77C013B012A01DC01FB
:101A90005896ED91FC915997028113810F5F1F4F6A
:101AA000312C212C452BB1F018968D919D910D90E4
:101AB000BC91A02D89839A83AB83BC83F701848575
:101AC0009585A685B7858D839E83AF83B887CE0124
:101AD00001961C01D12CC12C912C812CD701589638
:101AE000ED91FC910115110549F4008CF18DE02D6B
:101AF000A401B301C70119955C0129C002A0F3A19B
:101B0000E02D9801A101BE01675F7F4FC7011995C4
:101B10005C01D7019FEFA916B906F1F516968C91D5
:101B200081FD04C0AA24AA94BA2C11C000914616C3
:101B3000109147160437110521F5C7010E94100DB9
:101B4000C7010E94FD0C1093471600934616C5016D
:101B50002A960FB6F894DEBF0FBECDBFDF91CF91AE
:101B60001F910F91FF90EF90DF90CF90BF90AF90BB
:101B70009F908F907F906F905F904F903F902F90AD
:101B80000895023FBDE21B07F1F6C7010E94CC0C8D
:101B9000C7010E94D70CD7CF5896ED91FC910688CB
:101BA000F789E02DA801B301680D791DC7011995CA
:101BB0006115710509F582EF9DE2909347168093B8
:101BC0004616F701868181FFADCF00914616109130
:101BD0004716023FFDE21F0721F00F36110509F0FD
:101BE000A1CFC7010E94CC0CC7010E94D70C109353
:101BF00047160093461696CF6F3F760711F3860E71
:101C0000971E061B170B09F099C0D7015896ED9146
:101C1000FC91C114D10441F0CA94CD2809F457C0F5
:101C200082E0C82ED12C5ACFA281B381A60DB71D58
:101C30008C9141145104B9F490E087309105D4F0AF
:101C40009C012F5031092230310508F47CC08631C7
:101C5000910509F47EC04797D1F5CC24C394D12CCB
:101C600009E010E015C0813158F48F3018F4855028
:101C7000823048F4CC24C394D12C04E010E008C096
:101C8000863109F466C0CC24C394D12C01E010E065
:101C9000F701408951896289738984899589A68968
:101CA000B789411551056105710529F40097A10512
:101CB000B10509F413CF49835A836B837C838D83E9
:101CC0009E83AF83B887CE0101961C0107CFA28106
:101CD000B381A60DB71D8C914114510401F58F30CD
:101CE00020F08131A8F08731B9F084819581080F07
:101CF000191F9401200F311F868197818217930746
:101D0000D4F48FEE9BE290934716809346160ACF49
:101D100015960C9110E0E9CF19960C91FBCF90E04D
:101D2000853091052CF08131910511F04797E9F646
:101D300011960C91EFCF52E0C52ED12C1016110642
:101D40000CF4A6CFCBCECC24C394D12C05E010E06C
:101D50009FCFCC24C394D12C06E010E099CF50E063
:101D600040E00C942C0DCF93DF93FC01C28DD38DFA
:101D700028853985232B59F041E050E00E942C0D35
:101D80001986188690E080E0DF91CF91089550E0A9
:101D900040E00E942C0D0097B9F721E030E0398730
:101DA0002887F2CFAF92BF92CF92DF92EF92FF924D
:101DB0000F931F93CF93DF93EC017B01E88DF98D97
:101DC0000088F189E02DBA01C70119958C01E88DD1
:101DD000F98D0288F389E02DA801B701CE0119958C
:101DE0006B018FEFC816D806C9F48E8181FF16C02B
:101DF000A0904616B090471682EFA8168DE2B8065E
:101E000079F5CE010E94CC0CCE010E94100DCE01BE
:101E10000E94D70CB0924716A09246168E8181FF81
:101E200004C08FEFC816D80691F21C141D0464F488
:101E30000C151D0549F08FEE9BE290934716809399
:101E40004616CC24CA94DC2CC601DF91CF911F9199
:101E50000F91FF90EF90DF90CF90BF90AF900895DB
:101E6000CE010E94100DCE010E94FD0CD3CF5F92D7
:101E70006F927F928F929F92AF92BF92CF92DF929A
:101E8000EF92FF920F931F93CF93DF93CDB7DEB7FF
:101E9000C051D1400FB6F894DEBF0FBECDBF6C016C
:101EA000622E532EDC015896ED91FC910284F3854D
:101EB000E02D8E010B5F1E4F22E130E01995AC0141
:101EC000B801C6010E94D20E7C0118161906D4F57D
:101ED00041E050E0BE016F5F7F4FC6010E942C0DB4
:101EE0005C018F3F980721F4EE24EA94FE2C2AC06F
:101EF000D6015896ED91FC91028113818824839438
:101F0000912C8C0E9D1E800E911ED4017C90028C13
:101F1000F38DE02D309771F19C01AE014F5F5F4F63
:101F2000BE016B5F7E4FC60119957C01019611F5CC
:101F3000F601868182FFD8CFC6010E94100DC6012E
:101F40000E94FD0CC701C05FDE4F0FB6F894DEBFE4
:101F50000FBECDBFDF91CF911F910F91FF90EF90FA
:101F6000DF90CF90BF90AF909F908F907F906F90B9
:101F70005F900895F601A08DB18D12964D915C9100
:101F80001397E5E0F1E0EC0FFD1FE40FF51FE08192
:101F9000E150E73108F08BC0F0E08827ED52F04FB8
:101FA0008F4F0C94934C1F101F1043104310571069
:101FB0005710EA0F57105710571057105710571057
:101FC0005710571057105D105710571057105710D3
:101FD0005A10431083E090E0840F951F14966D9182
:101FE0007C911597860F971F77FE6DC014968D9183
:101FF0009C91800F911F0296A816B90609F060C047
:10200000E5E0F1E0EC0FFD1FE00FF11F2081D401AE
:102010008C918058990B2817190609F051C0FE01C0
:10202000E00FF11F828190E08C3091050CF048C0E8
:102030008E51944D909347168093461655CFE8E005
:10204000F1E0EC0FFD1FE40FF51F2081E9E0F1E066
:10205000EC0FFD1FE40FF51F8081322F282FC901DF
:1020600037FD079663E0959587956A95E1F70296A7
:102070002770332761E070E0232B11F470E060E0FB
:10208000860F971FA9CFE8E0F1E0EC0FFD1FE40FEA
:10209000F51F8081E9E0F1E0EC0FFD1FE40FF51F73
:1020A0006081982F862F0196880F991F95CF85E024
:1020B00090E092CF87E090E08FCF8FEF9FEF94CFAB
:1020C00080EF9BE2B7CFA816B90611F0019649F44C
:1020D000E5E0F1E0EC0FFD1FE00FF11F80817816C5
:1020E00069F0F601868182FF06C0C6010E94100DCC
:1020F000C6010E94FD0C8FEE9BE29CCFEFEFE70D37
:10210000E73108F0B6C0F0E08827E657FF4E8F4F62
:102110000C94934CA110A110D510D5103911391180
:10212000391139113911391139113911391139115F
:10213000EE10EE101511391139113911391139110B
:10214000D510E8E0F1E0EC0FFD1FE00FF11F20815A
:10215000822F90E0982F8827E9E0F1E0EC0FFD1F37
:10216000E00FF11F2081280F392F311DC90137FDE4
:102170000796E3E095958795EA95E1F72770332771
:1021800061E070E0232B11F470E060E0860F971F90
:10219000FE01E00FF11FE280F12C8E159F0509F47E
:1021A0006EC0D60116968C919ECFE8E0F1E0EC0F60
:1021B000FD1FE00FF11F808190E0982F8827E9E054
:1021C000F1E0EC0FFD1FE00FF11F2081820F911D48
:1021D000FE01E00FF11FE280E694DECF98012D5F53
:1021E0003F4F0C5F1F4FE5E0F1E0EC0FFD1FE20FEA
:1021F000F31F808190E0982F8827E5E0F1E0EC0F55
:10220000FD1FE00FF11F6081860F911D61E070E0FE
:102210006C0F7D1F260F371FD901EC90060F171F7B
:10222000F8012081FE2CE22EB8CFFE01E00FF11F55
:10223000E280F12CE62DF52D90E080E021E030E009
:102240002C0F3D1F420F531F8E159F050CF07ACEA9
:10225000DC01AA0FBB1FA40FB51F12962C91129779
:1022600013963C91232732272327219331930196FC
:10227000EBCFEE24E394F12C81E090E08ECFFFEFE2
:10228000EF16FF06B9F630CE81E00895FC0184898F
:10229000882349F084859585DC01ED91FC910190BE
:1022A000F081E02D199481E090E09383828390E0A7
:1022B00080E00895DC011C968D919C91DC01ED91EC
:1022C000FC910680F781E02D1994DC011C968D911C
:1022D0009C91DC01ED91FC910284F385E02D199431
:1022E000DC011C968D919C91DC01ED91FC910484A4
:1022F000F585E02D1994DC011C968D919C91DC01F3
:10230000ED91FC910084F185E02D19940F931F93BA
:10231000CF93DF938C01FC01C485D585E881F981D9
:102320000680F781E02DCE011995EA89FB8980812D
:102330008F7E8083EA89FB898081877F8083EA8919
:10234000FB8980818F778083EA89FB8980818F7DFB
:1023500080838A8D898FF8018289938997FD08C0CF
:1023600060E00E94D10560E0F80180890E945D066E
:10237000F8018089918997FD0CC060E00E94D10529
:1023800060E0F8018289DF91CF911F910F910C9449
:102390005D06DF91CF911F910F910895CF92DF924B
:1023A000EF92FF921F93CF93DF93EC016A017B01C1
:1023B000122FCD8ADE8AEF8AF88E298F3A8F88898C
:1023C000998997FD07C061E00E945D0660E08889F9
:1023D0000E94D1058A899B8997FD07C061E00E9410
:1023E0005D0661E08A890E94D1051C8A212FB70110
:1023F000A6018C859D85DF91CF911F91FF90EF9075
:10240000DF90CF900C94B704DC01ED91FC91008833
:10241000F189E02D26E030E01994089590E080E005
:102420000895AF92BF92CF92DF92EF92FF920F93F7
:102430001F93CF93DF9300D01F92CDB7DEB78C01EF
:102440006B017A0180916F108333E9F45B016801BD
:10245000C40ED51EC016D106A9F10E9416078FE042
:102460000E942107812F0E942107802F0E942107AF
:102470000F5F1F4F80E00E942107F50181935F01EC
:102480000E940C07E7CF843369F50E941607198371
:102490000A838F2D8F778B83EC8264E070E0CE010E
:1024A00001960E94F206A70170E060E0C6010E945A
:1024B000AF4EE114F10421F0B701C6010E94F2060B
:1024C0000E940C07C7010F900F900F900F90DF91A3
:1024D000CF911F910F91FF90EF90DF90CF90BF9021
:1024E000AF9008950E9416070F3F110509F030F4D0
:1024F00019820A831B8263E070E0D1CF17FD0BC005
:1025000019820A8333E0169507953A95E1F7007E24
:1025100008600B83F0CFC80126E0969587952A9531
:10252000E1F7807E19830A830115104C18F480614D
:102530008B83E1CF8861FCCF1F93CF93DF931F92F2
:10254000CDB7DEB7182F80E591E00E940E04812FF1
:102550000E94E90727E0129FF0011124E95DFF4E78
:1025600022813381377041E050E0BE016F5F7F4FC1
:10257000820F931F0E94111289810F90DF91CF91DA
:102580001F910895FC01808D883040F4218D328D9B
:10259000232B21F00E949C1290E008958FEF9FEF73
:1025A0000895CF93DF93FC012485283028F08FEF26
:1025B0009FEFDF91CF910895EC010190F081E02D24
:1025C0000084F185E02D1995892B89F38C850E9473
:1025D0009C1290E0EECFCF93DF931F92CDB7DEB782
:1025E00041E050E0BE016F5F7F4F0E941112898170
:1025F0000F90DF91CF91089590E080E00C94EB1262
:10260000CF93DF93C4E1D0E00E94FC12882361F0F5
:1026100061E070E080E090E00E94B3062197A1F7AE
:1026200080E0DF91CF91089581E0FBCF1F93CF939E
:10263000DF931F921F92CDB7DEB760E372E080E0B8
:1026400090E00E94B3061FB7F8948091BA0A8111F6
:1026500027C0EDE8F6E08491E3EDF6E09491E82FF1
:10266000F0E0EE0FFF1FEC5DF94FA591B491EC91F6
:10267000E92321F461E085E30E94D10561E085E36F
:102680000E945D068CB580618CBD8CB580648CBD6C
:1026900061E084E30E945D0661E083E30E945D06E1
:1026A0008091BA0A8F5F8093BA0A1FBF809100029F
:1026B000282F30E0F901E85AF94FE491F0E0EE0FED
:1026C000FF1FE25CF94F459154915093B90A409332
:1026D000B80AF901E256F94FE491E093B70A61E0D4
:1026E0000E945D060E940C0780E591E00E940E04A6
:1026F00084E380936F1080E80E94D6070E94001345
:10270000882391F188E00E94D6070E94FC1288304D
:1027100059F580E10E94D6070E94FC12803121F514
:1027200080E00E94D6070E94FC12182F81111CC065
:102730008FE190E00E94EB128330B1F480E480934B
:10274000BB0A42E06EE170E0812F0E94340842E053
:102750006FE170E0812F0E9434081F5F183089F705
:1027600081E08093701064C087E380936F1080E8ED
:102770000E94D6070E9400138823F9F088E00E9487
:10278000D6070E94FC128830C1F480E10E94D6076F
:102790000E94FC12182F803181F480E00E94D6073D
:1027A0000E94FC12811109C089E390E00E94EB12A3
:1027B000843019F41093BB0AD3CF83E380936F1056
:1027C00080E80E94D6070E940013882371F180E1FF
:1027D0000E94D6070E94FC12803139F582E10E94E6
:1027E000D6070E94FC12823101F580E00E94D607D4
:1027F0000E94FC12811119C084E08093BB0A15E588
:102800001A8341E050E0BE016E5F7F4F8BE190E0A4
:102810000E942807198341E050E0BE016F5F7F4F9F
:102820008AE190E00E9428079BCF10926F1080E011
:102830000F900F90DF91CF911F910895CF92DF926B
:10284000EF92FF92CF93DF93CDB7DEB7C254D10999
:102850000FB6F894DEBF0FBECDBFFC01428153819D
:102860006481758123964CAF5DAF6EAF7FAF2397C8
:1028700081E023968FAF23972396CCACDDACEEACF2
:10288000FFAC2397CBAADCAAEDAAFEAA4DA75EA7B0
:102890006FA778AB88ABCDA4DEA4EFA4F8A8CFA235
:1028A000D8A6E9A6FAA68EABCBA8DCA8EDA8FEA810
:1028B000C9A2DAA2EBA2FCA22CE133E03C8B2B8B69
:1028C0009FEF9D8B9E8B9F8B188E3E872D878AA7AF
:1028D000CFA0D8A4E9A4FAA4CF86D88AE98AFA8A34
:1028E0008CA389A19AA1ABA1BCA189879A87AB8748
:1028F000BC873A8329834B835C836D837E8380917D
:102900007010882309F443C080E591E00E940E0412
:1029100046E050E063E072E089E090E00E94280722
:1029200044E050E0BE016D5F7F4F8FE090E00E9479
:10293000280744E050E0BE01615F7F4F81E090E0F6
:102940000E94280744E050E0BE016B5E7F4F85E0A7
:1029500090E00E94280781E08C8789859A85AB8565
:10296000BC8580932E1190932F11A0933011B093BA
:102970003111CE5BDF4F0FB6F894DEBF0FBECDBF77
:10298000DF91CF91FF90EF90DF90CF9008950E945C
:102990001613882371F3B8CF2091BB0A30E0322F91
:1029A0002227620F731F90E0982F8827860F971FAA
:1029B0000C94EB12CF93C82F462F61E070E00E9479
:1029C000340861E070E08C2F0E94CC148111F9CFA3
:1029D000CF910895CF93C82F80E591E00E940E0417
:1029E00068E070E08C2FCF910C94DA14CF93C82F4D
:1029F00080E591E00E940E0460E170E08C2FCF91A1
:102A00000C94DA14CF93DF93EC01888D883020F496
:102A10000E94F61488E0888FDF91CF91089563E0DB
:102A200070E00C94CC14CF93C82F80E591E00E9405
:102A30000E048C2FCF910C940F15EF92FF920F93F1
:102A40001F93CF93DF937C0180916F10D4E0833389
:102A500009F0D8E00FE510E1C0E0F80121913191D3
:102A60008F01F701848195812817390729F0CF5FFD
:102A7000DC13F3CF80E006C08C2F0E941315843145
:102A8000B1F781E0DF91CF911F910F91FF90EF900F
:102A90000895CF93DF93EC018C858830D0F40E94A9
:102AA0001315843189F0882379F0883169F021E0A9
:102AB0008C3159F4E881F9810084F185E02DCE0153
:102AC000199521E0892B09F420E0822FDF91CF9125
:102AD000089580E0FBCFCF92DF92EF92FF92CF93E9
:102AE000DF93EC018C85883068F40E94EA140E9420
:102AF000E6066B017C018C850E941315811109C0CB
:102B000088E08C87DF91CF91FF90EF90DF90CF909E
:102B1000089561E070E080E090E00E94B3060E94BA
:102B2000E606AB01BC014C195D096E097F098D8574
:102B30009E85B0E0A0E0481759076A077B07D8F2E6
:102B40008C850E94F614DCCFCF93FC01C08D80E50C
:102B500091E00E940E0460E270E08C2F0E94DA1473
:102B600062E070E08C2F0E94CC1484FD16C062E0FD
:102B700070E08C2F0E94CC1483FF0AC048E162E011
:102B800070E08C2F0E94340880E090E0CF9108958F
:102B900080E591E00E940E04E3CF40E162E070E046
:102BA0008C2F0E94340881E0F0CFDA01E091BB0A5B
:102BB000F0E0FE2FEE27E60FF71F90E0982F882712
:102BC000A901BD018E0F9F1F0C9411128F929F922D
:102BD000AF92BF92CF92DF92EF92FF920F931F932B
:102BE000CF93DF93CDB7DEB760970FB6F894DEBF13
:102BF0000FBECDBF7C0190916F10911115C018E0F0
:102C0000812F60960FB6F894DEBF0FBECDBFDF9167
:102C1000CF911F910F91FF90EF90DF90CF90BF90D9
:102C2000AF909F908F90089508E0933309F404E0EB
:102C30006B0180E591E00E940E049E012F5F3F4FE3
:102C40005901490110E0812F0E940F15F401819371
:102C50004F018823C1F01F5F0113F5CF00E0F5019C
:102C600081915F018D3149F0883139F08A5182308C
:102C700020F00F5F1013F3CFC2CF60E170E0802F20
:102C80000E94DA14102FA12EB12CF501EE0FFF1FB8
:102C9000E15AFF4E1182108283EE93E00197F1F723
:102CA00042E870E060E0812F0E9434084FEF62E05C
:102CB00070E0812F0E943408B601C114D10491F450
:102CC000809101029091020201968115F0EC9F071C
:102CD00008F45CC0909302028093010260910102AB
:102CE00070910202812F0E941E0886E0EFE0F2E060
:102CF000DE01199601900D928A95E1F7F701838123
:102D00008F778C8784818D8785818E87A7014E5F21
:102D10005F4F24E030E06CE070E0812F0E94F70705
:102D2000B601812F0E94080826E030E0AE01475F1F
:102D30005F4F66E070E0812F0E94F70761E070E06E
:102D4000812F0E94DA1427E02A9DC0012B9D900D4F
:102D500011249C01295D3F4E7901F90111821082F5
:102D600022E030E0AE01415F5F4F68E270E0812F0A
:102D70000E94D5158F859889982789279827F7016C
:102D8000938382831682158214823ACF80E090EC7E
:102D9000A1CFCF92DF92EF92FF920F931F93CF9329
:102DA000DF9300D000D0CDB7DEB78C016B017A0184
:102DB000FC01808D883010F40E94F6148CE193E0C1
:102DC0009A838983F60182819381A481B5818B8363
:102DD0009C83AD83BE83B701CE0101960E94E615A8
:102DE000F801808F8830A0F4F586E486128E118E6B
:102DF00081E026960FB6F894DEBF0FBECDBFDF91FF
:102E0000CF911F910F91FF90EF90DF90CF90089599
:102E100080E0EFCF7F928F929F92AF92BF92CF923E
:102E2000DF92EF92FF920F931F93CF93DF931F9246
:102E30001F92CDB7DEB7782E8B014A01590122E0EF
:102E400030E0AE014F5F5F4F64E270E00E94D51545
:102E5000E980FA80FE24EF24FE24E00EF11E9701A3
:102E6000377040916F10072D10E0433309F042C0D6
:102E7000085F1F4F102F0027110F110F110FC901ED
:102E8000800F911F4733C9F1A9014A0D5B1D4130E5
:102E9000584098F160E078E06B01C21AD30AA601AD
:102EA000B4010E942807A5014C195D09B4016C0DFD
:102EB0007D1DC8010E942807EA0CFB1CF982EA82EA
:102EC00022E030E0AE014F5F5F4F64E270E0872D9B
:102ED0000E94F7070F900F90DF91CF911F910F91F4
:102EE000FF90EF90DF90CF90BF90AF909F908F902A
:102EF0007F900895005F1F4FBDCFA501B401DACFC9
:102F0000EF92FF921F93CF93DF931F921F92CDB743
:102F1000DEB7182F22E030E0AE014F5F5F4F60E276
:102F200070E00E94D515E980FA80FE24EF24FE248B
:102F300022E030E0AE014F5F5F4F60E270E0812F32
:102F40000E94D51589819A81982789279827E816A4
:102F5000F90689F487E0189FF0011124E95DFF4E1E
:102F6000F582E482C7010F900F90DF91CF911F91FE
:102F7000FF90EF9008957C01DBCF1F93CF93DF93F9
:102F8000182F80E591E00E940E04812F0E94801787
:102F9000EC01812F0E940F15873121F08C3111F047
:102FA000D0E0C0E0CE01DF91CF911F910895CF9383
:102FB000DF93EC018C85883060F40E941315873113
:102FC00011F08C3131F48C850E94BD178115984029
:102FD00088F3DF91CF910895FC018485883010F447
:102FE0000C94BD1790E080E00895CF92DF92EF92AD
:102FF000FF921F93CF93DF93182F7B01EA0141309B
:10300000584010F0C0E0D8E080E591E00E940E0446
:10301000812F0E9480176C01812F0E940F1587312C
:1030200011F08C3121F5CC16DD0670F380E591E0CE
:103030000E940E049E01A70170E060E0812F0E94B3
:103040000A1760E270E0812F0E94DA1462E070E0FB
:10305000812F0E94CC1484FD0DC0812F0E940F157A
:103060008823B9F080E591E00E940E04EFCFD0E014
:10307000C0E0DCCF40E162E070E0812F0E943408C4
:10308000CE01DF91CF911F91FF90EF90DF90CF9015
:103090000895D0E0C0E0F4CF0F931F93CF93DF9358
:1030A0008C01EA01FC018485883048F40E94F51700
:1030B000892B39F481E090E0F80193838283D0E09A
:1030C000C0E0CE01DF91CF911F910F9108959F92A3
:1030D000AF92BF92CF92DF92EF92FF920F931F9326
:1030E000CF93DF938C015B01942EE52EFC01C68803
:1030F000D788F08C80E591E00E940E048F2D0E940D
:103100008017C92DDE2D8C179D0708F4EC019E0158
:10311000A501B6018F2D0E940A17F80186899789AB
:103120008C0F9D1F978B868BCE01DF91CF911F91C6
:103130000F91FF90EF90DF90CF90BF90AF909F9056
:103140000895FF920F931F93CF93DF931F921F92C7
:10315000CDB7DEB7F82E22E030E0AE014F5F5F4F13
:1031600066E270E00E94D51509811A8110270127B7
:10317000102722E030E0AE014F5F5F4F66E270E063
:103180008F2D0E94D51589819A81982789279827A4
:103190000817190749F4C8010F900F90DF91CF91DC
:1031A0001F910F91FF9008958C01E3CF1F93CF9350
:1031B000DF93182F87E0189FE0011124C95DDF4ECF
:1031C00088819981009761F480E591E00E940E0466
:1031D000812F0E94A1182E81821B910999838883D7
:1031E000DF91CF911F9108959F92AF92BF92CF929E
:1031F000DF92EF92FF920F931F93CF93DF93EC0137
:103200007B0180916F10811121C01B821A8288EE90
:1032100093E0A0E0B0E08C839D83AE83BF8389E11F
:1032200092E09983888388E08C8788EE93E09E877C
:103230008D87CE01DF91CF911F910F91FF90EF907D
:10324000DF90CF90BF90AF909F90089534E0932E81
:10325000833311F028E0922E8FE5C82E80E1D82E1E
:1032600010E098E0B92EA12CD6012D913D916D0171
:10327000F701848195812817390791F4812F0E94E5
:103280001315082F873111F08C3139F5812F0E94E9
:10329000D618892B59F50C3119F4812F0E94EA14A4
:1032A0001F5F9112E1CFA11008C0D701ED91FC91F1
:1032B0000084F185E02DC70119951B821A8288EEE2
:1032C00093E0A0E0B0E08C839D83AE83BF8389E16F
:1032D00092E099838883BC86A8CF843149F081111C
:1032E000DFCFF601329711821082DACFB12ED8CF1C
:1032F000AA24A394D5CF8F929F92AF92BF92CF92E0
:10330000DF92EF92FF920F931F93CF93DF93CDB78E
:10331000DEB72F970FB6F894DEBF0FBECDBF5C01AE
:103320004B017A0180916F108823C9F104E0833347
:1033300009F008E0B501CE0101960E94F4188FE56E
:10334000C82E80E1D82E10E0F601219131916F0155
:10335000F501848195812817390751F4812F0E9446
:103360001315873129F4A701B401812F0E94F517A5
:103370001F5F0113E9CFC7012F960FB6F894DEBF88
:103380000FBECDBFDF91CF911F910F91FF90EF90B6
:10339000DF90CF90BF90AF909F908F900895F12CC9
:1033A000E12CE9CFFC018485883010F40C94D61808
:1033B00090E080E008954F925F927F928F929F926B
:1033C000AF92BF92CF92DF92EF92FF920F931F9333
:1033D000CF93DF931F921F92CDB7DEB7782E6B018C
:1033E0004A01A82EB12C27E0829FC0011124FC01C4
:1033F000E95DFF4E7F010081118180E591E00E942F
:103400000E040815190554F4872D0E94A118F70120
:1034100026818C01021B11091183008301151105FE
:1034200019F5872D0E940F15843159F0882349F032
:1034300001E010E08C3111F410E000E011950195ED
:103440001109C8010F900F90DF91CF911F910F913B
:10345000FF90EF90DF90CF90BF90AF909F908F90B4
:103460007F905F904F900895801691060CF4840130
:1034700087E08A9DF0018B9DF00D1124E95DFF4EE0
:10348000E280F380C114D10451F12701F7E05F22FB
:10349000872D0E94E907840D951D20916F10273319
:1034A00009F453C09801240D351D2130384008F42B
:1034B0004CC020E038E0490184189508A401B60109
:1034C0000E9411122601480C591C6801C818D9081D
:1034D000872D0E94E907A601B2010E941112E00E99
:1034E000F11E87E08A9DF0018B9DF00D1124E95DAE
:1034F000FF4EF382E28220813181201B310B318328
:1035000020838681800F912F911D8A3F910510F4B1
:10351000232BF1F487E08A9DF0018B9DF00D11249F
:10352000E95DFF4E1682F982EA8222E030E0AE01C8
:103530004F5F5F4F68E270E0872D0E94F70760E4FD
:1035400070E0872D0E94DA147CCFA801B601C5CFA8
:10355000868377CFCF93DF93FC01218D328D2115A8
:10356000310529F48FEF9FEFDF91CF910895EC01A2
:10357000808D4217530708F0A9010E94DB19181625
:10358000190684F7298D3A8D281B390B3A8F298F1C
:10359000EBCF0F931F93CF93DF931F92CDB7DEB77F
:1035A000FC01218D328D232B41F48FEF9FEF0F9083
:1035B000DF91CF911F910F9108958C0141E050E070
:1035C000BE016F5F7F4FFC01808D0E94DB191816D2
:1035D00019065CF7F801818D928D0197928F818F8A
:1035E000898190E0E4CFCF93DF931F92CDB7DEB710
:1035F00041E050E0BE016F5F7F4FFC0184850E9477
:10360000DB191816190634F4898190E00F90DF91C8
:10361000CF9108958FEF9FEFF9CFFC01848588301B
:1036200010F40C94DB1990E080E008958F929F9243
:10363000AF92BF92CF92DF92EF92FF920F931F93C0
:10364000CF93DF9300D000D000D01F92CDB7DEB76C
:1036500090916F10911115C018E0812F2A960FB626
:10366000F894DEBF0FBECDBFDF91CF911F910F91B8
:10367000FF90EF90DF90CF90BF90AF909F908F9092
:10368000089528E0F22E933311F494E0F92E6B01A3
:10369000082F80E591E00E940E049E012F5F3F4FAE
:1036A0005901490110E0812F0E940F15F401819307
:1036B0004F018823C1F01F5FF112F5CFF12CF50106
:1036C00091915F019D3149F0983139F09A519230D2
:1036D00020F0F3941F11F3CFBFCF60E170E08F2D86
:1036E0000E94DA141F2DE12EF12CF701EE0FFF1FBF
:1036F000E15AFF4E1182108283EE93E00197F1F7B9
:10370000402F70E060E0812F0E9434084FEF62E0AC
:1037100070E0812F0E943408B601CD2889F4809191
:1037200001029091020201968115F0EC9F0798F139
:103730009093020280930102609101027091020253
:10374000812F0E941E0861E070E0812F0E94DA1430
:1037500027E02E9DC0012F9D900D11249C01295D15
:103760003F4E7901F9011182108222E030E0AE0172
:10377000475F5F4F68E270E0812F0E94D515898511
:103780009A85982789279827F70193838283168241
:103790001582148262CF80E090ECCACF0F931F9302
:1037A000CF93DF93EC018B01888D883010F40E9459
:1037B000F614B80182E00E94161B888F883050F4FE
:1037C0001D870C871A8E198E81E0DF91CF911F9192
:1037D0000F91089580E0F9CF0F931F93CF938C0141
:1037E000FC016481758181E20E94161BC82F88301C
:1037F000F8F480E591E00E940E048C2F0E940F15D2
:10380000833131F08C2FCF911F910F910C94EA14DA
:1038100062E070E08C2F0E94DA14F80184819581B7
:10382000EC2FF0E0EE0FFF1FE15AFF4E91838083F3
:10383000CF911F910F910895CF92DF92EF92FF9257
:103840001F93CF93DF93EC017B016A018C85883055
:1038500048F40E941315882319F08C850E94EA14FD
:1038600088E08C87F70182819381A481B5810097DC
:10387000A105B10551F490E080E0DF91CF911F9157
:10388000FF90EF90DF90CF9008958F3F9F4FAF4F05
:10389000BF4F89F370E060E081E20E94161B182F91
:1038A0008C87883040F780E591E00E940E04A701E4
:1038B0004E5F5F4F24E030E06CE070E0812F0E94AB
:1038C000F707B601812F0E94080864E070E0812F9D
:1038D0000E94DA140E94E6066B017C018C850E942E
:1038E0001315873111F18C3101F1882321F20E94E7
:1038F000E606AB01BC014C195D096E097F098D8597
:103900009E85B0E0A0E084179507A607B70738F0BA
:1039100061E070E080E090E00E94B306DFCF8C852C
:103920000E94F61488E08C87A6CF81E090E0A5CFB6
:103930000F931F93CF93DF931F921F92CDB7DEB7E4
:10394000FC0124852830E0F48C0180E591E00E94A0
:103950000E0422E030E0AE014F5F5F4F60E170E0A7
:10396000F80184850E94D51589819A819827892735
:1039700098270F900F90DF91CF911F910F9108958D
:1039800090E080E0F6CF0F931F93CF93DF931F92C9
:103990001F92CDB7DEB7FC0124852830E0F48C01FE
:1039A00080E591E00E940E0422E030E0AE014F5F1E
:1039B0005F4F64E070E0F80184850E94D51589812D
:1039C0009A819827892798270F900F90DF91CF91A0
:1039D0001F910F91089590E080E0F6CF2091C513DC
:1039E0003091C613821793075CF04091C313509136
:1039F000C413420F531FFC01B4964E175F074CF4DB
:103A000084EE9BE2909347168093461690E080E008
:103A10000895821B930B880F991FA091CF13B0912B
:103A2000D013A80FB91F88E4FB0101900D928A956D
:103A3000E1F781E090E008950F931F93CF93DF9318
:103A400000D000D01F921F92CDB7DEB78C01D801F5
:103A500059964D915C915A974115510551F0ED9150
:103A6000FC91048CF58DE02D70E060E0C8011995A3
:103A7000EECFF801808D0E94D618892BB1F148E075
:103A800050E0BE016F5F7F4FD80158968C910E9425
:103A9000DB1918161906F4F4D801509684E0FE01DB
:103AA000319601900D928A95E1F78D8190E0982FE3
:103AB00088272E81820F911DF801958B848B8F8131
:103AC000282F30E0322F22278885820F932F911DD7
:103AD000928F818F28960FB6F894DEBF0FBECDBFB0
:103AE000DF91CF911F910F91089590E080E0F2CF88
:103AF0004F925F926F927F928F929F92AF92BF92FE
:103B0000CF92DF92EF92FF920F931F93CF93DF93A9
:103B1000CDB7DEB763970FB6F894DEBF0FBECDBF4B
:103B20007C016B013A01FB0120E090E080E06AE05B
:103B30003191332309F461C040ED430F4A3008F05E
:103B40004DC0689FA001699F500D1124CA01C09704
:103B5000830F911D37FD9A958F3F910549F340F3EF
:103B6000F701428153816481758180913A1190916E
:103B70003B11A0913C11B0913D11481759076A07BC
:103B80007B0709F40DC28701085F1F4F0E94E606FC
:103B90006F7077277C5FC8010E94CE1B813009F0CF
:103BA00004C28CE193E09A838983F7018281938137
:103BB000A481B5818B839C83AD83BE8345E350E0B4
:103BC000BE016F5F7F4FC8010E94BA08892BA9F51B
:103BD000D12CC12CC8010E94021517C03E3209F039
:103BE000BFCF233009F4BCCFD301A20FB11D129671
:103BF0008C932F5F90E080E09BCF233009F0B0CF13
:103C0000F3018583CC24C394D12CC60163960FB6EF
:103C1000F894DEBF0FBECDBFDF91CF911F910F9102
:103C2000FF90EF90DF90CF90BF90AF909F908F90DC
:103C30007F906F905F904F9008950E94E606F70185
:103C40007783668342E050E0B7016A5F7F4FC80127
:103C50000E94671881E090E09A83898342E050E0F7
:103C6000BE016F5F7F4FC8010E94671880E091E03E
:103C70009A83898342E050E0BE016F5F7F4FC801A5
:103C80000E9467181A82198242E050E0BE016F5FFD
:103C90007F4FC8010E94671842E050E0BE016F5F8D
:103CA0007F4FC8010E94671842E050E0BE016F5F7D
:103CB0007F4FC8010E9467185601F6018081882352
:103CC00001F16501F60181912F01882311F08E32F7
:103CD000B1F446018A189B081814190474F48D86EF
:103CE00041E050E0BE01635F7F4FC8010E9467184A
:103CF000A401B501C8010E9467185201DECF62011C
:103D0000E1CF1D8641E050E0BE01635F7F4FC801F7
:103D10000E946718C12CDD24D394DA82C98242E064
:103D200050E0BE016F5F7F4FC8010E946718DA82C2
:103D3000C98242E050E0BE016F5F7F4FC8010E9420
:103D40006718C8010E94A415892B09F441CFF3E03C
:103D5000AF2EB12C230122E0420E511CD4C0F7013A
:103D60004281538164817581808D918DA28DB38D47
:103D7000481759076A077B0709F008C1848D958D9C
:103D8000C59709F003C181A192A15DEFC52EDD2485
:103D9000DA940C970CF4ADC04CE050E0BE016F5FBC
:103DA0007F4FC8010E94AA1A8B819C81982789277E
:103DB00098279A8B898BF7014681578129813A810F
:103DC0004217530709F0E7C097FFE5C08F70927064
:103DD0003BEFC32EDD24DA94892B09F08AC06F8073
:103DE00078847624672476242AEFC22EDD24DA94A0
:103DF0006114710409F47DC0D12CC12C8D819E8188
:103E0000982789279827C816D906F8F441E050E08A
:103E1000BE01635F7F4FC8010E94AA1A4D854423EB
:103E200031F050E070E060E0C8010E94AA1A8D8570
:103E30008111ECCF44E050E070E060E0C8010E94E6
:103E4000AA1AFFEFCF1ADF0AD9CF912C812C41E0BB
:103E500050E0BE016D5E7F4FC8010E94AA1A4B89D7
:103E6000842F807C09F06CC0442331F050E070E076
:103E700060E0C8010E94AA1A8B898111E8CF42E054
:103E800050E0BE01615F7F4FC8010E94AA1A42E064
:103E900050E0BE01635F7F4FC8010E94AA1A44E050
:103EA00050E070E060E0C8010E94AA1A42E050E0D1
:103EB000BE016F5E7F4FC8010E94AA1A8F85988944
:103EC00049895A898115914009F043C0CD84DE8427
:103ED000DC24CD24DC2481E0C816D104D1F54115C1
:103EE000544009F04AC044E050E0B201C8010E94C9
:103EF000AA1A21E0A21AB10809F46CCEFFEFCF167E
:103F0000DF0609F067CE0E94E6063B014C01C801BE
:103F10000E941C1D181619060CF421CF0E94E606FB
:103F200066197709880999096938734181059105EE
:103F300048F562E370E080E090E00E94B306E7CFCE
:103F400041E050E070E060E0C8010E94AA1A1B8ABC
:103F500093CF54274527542770E060E0C8010E94A2
:103F6000AA1AFFEF8F1A9F0A6814790409F06FCF1D
:103F700096EFC92EDD24DA94BCCFE7EFCE2EDD24F8
:103F8000DA94B7CFCC24CA94DC2CB3CF6EEFC62E14
:103F9000DD24DA94AECF4CEFC42EDD24DA94A9CF21
:103FA0008EEFC82EDD24DA9430CED12CC12C2DCE4C
:103FB000CF92DF92EF92FF920F931F93CF93DF93F5
:103FC000CDB7DEB7AF970FB6F894DEBF0FBECDBF4B
:103FD0007C016A010CE113E01A8309831C861B86AD
:103FE00088EE93E0A0E0B0E08D879E87AF87B88B26
:103FF00087E492E09A878987188F0F8B198E1A8E23
:104000001B8E1C8E88E089A31BA70AA71CA61DA6D1
:104010001EA61FA680912E1190912F11A0913011F4
:10402000B09131118EA39FA3A8A7B9A78B839C83BE
:10403000AD83BE8318861F82AE01465D5F4FCE0101
:1040400001960E94781D81309105B1F4D701ED9160
:10405000FC910488F589E02D1DA30CA38CA59DA5DA
:10406000AEA5BFA58EA39FA3A8A7B9A7A601BE0111
:104070006C5D7F4FC7011995AF960FB6F894DEBF00
:104080000FBECDBFDF91CF911F910F91FF90EF90A9
:10409000DF90CF900895CF92DF92EF92FF920F932F
:1040A0001F93CF93DF93CDB7DEB7AF970FB6F894DA
:1040B000DEBF0FBECDBF8C016B017A018CE193E0B6
:1040C0009A8389831B821C821D821E821C861B860A
:1040D00048EE53E060E070E04D875E876F87788B35
:1040E00027E432E03A872987988F8F8B198E1A8EB2
:1040F0001B8E1C8E28E029A39BA78AA71CA61DA6A1
:104100001EA61FA6D8011C968C91883060F40E94D0
:104110001315882321F0F80184850E94EA1488E0B1
:10412000D8011C968C9380912E1190912F11A09103
:104130003011B09131118EA39FA3A8A7B9A78B838B
:104140009C83AD83BE8318861F82AE01465D5F4FA0
:10415000B601CE0101960E94781D0097C1F0D801EA
:10416000ED91FC910684F785E02D8CE193E09DA311
:104170008CA38CA59DA5AEA5BFA58EA39FA3A8A724
:10418000B9A7A701BE016C5D7F4FC8011995AF9615
:104190000FB6F894DEBF0FBECDBFDF91CF911F9158
:1041A0000F91FF90EF90DF90CF900895EF92FF92E4
:1041B0000F931F93CF93DF9300D01F92CDB7DEB73D
:1041C0008C017B01FB0184858830A8F08CE193E0B1
:1041D000F801918380831282138214821582C801B0
:1041E0000F900F900F900F90DF91CF911F910F9133
:1041F000FF90EF90089580E591E00E940E0424E086
:1042000030E0AE014F5F5F4F6CE070E0F7018485F6
:104210000E94D5158CE193E0F80191838083898118
:104220009A81AB81BC8182839383A483B583D7CFEA
:10423000CF93DF93EC0164E270E080911C169091C3
:104240001D160E94C04D90931D1680931C16892B3D
:1042500049F482EF9DE2909347168093461690E0D2
:1042600080E036C061E070E080910B1690910C16F2
:104270000E94EA0C20911C1630911D1680910B169D
:1042800090910C16009719F486E190E0E4CFAE010E
:1042900064E070E00E94370F019609F31092131644
:1042A00083E090E0909317168093161682E190E0D9
:1042B00090931F1680931E161092211610922016AE
:1042C0001092231610922216109225161092241680
:1042D000DF91CF9108950F931F93CF93DF93EC015C
:1042E00088819981009759F02A813B8126173707E9
:1042F00030F081E0DF91CF911F910F9108958B01F4
:104300006F5F7F4F0E94C04D009759F0998388835B
:104310001B830A832C813D81232B59F7FC011082DA
:10432000E8CF80E0E7CF0F931F93CF93DF938C010B
:104330008CE190E00E949B4CEC018FEF9FEF9B8300
:104340008A831D821C821F821E82188619861A8605
:104350001B8680E291EAA7E0B0E08C879D87AE875C
:10436000BF87188A198A1A8A1B8A8C8B9D8BAE8B01
:10437000BF8B8FEF90E09983888388E992E0998FD3
:10438000888F8CE090E00E949B4CFC019B8F8A8F71
:1043900013861286D80112964D915D916D917C9194
:1043A0001597468357836087718713821282118223
:1043B0001082CE01DF91CF911F910F9108950F933D
:1043C0001F938091891390918A13DC01ED91FC91E8
:1043D0000084F185E02D199503970CF4B6C0809107
:1043E000891390918A13DC01ED91FC910284F3858D
:1043F000E02D19958093A9130E94E6066093AA13F5
:104400007093AB138093AC139093AD138091A91369
:10441000833201F18091891390918A13DC01ED912F
:10442000FC910284F385E02D19958093A9130E94D5
:10443000E6060091AA131091AB132091AC133091B2
:10444000AD13601B710B820B930B653671058105F3
:104450009105E0F28091A913833209F076C0809132
:10446000891390918A13DC01ED91FC910284F3850C
:10447000E02D19958093B0130E94E6066093AA136D
:104480007093AB138093AC139093AD1381E0809342
:10449000AE138091891390918A13DC01ED91FC9108
:1044A0000084F185E02D19952091B0132817190685
:1044B000B1F0ACF00E94E6060091AA131091AB1384
:1044C0002091AC133091AD13601B710B820B930BD9
:1044D0006536710581059105E0F21092AE13809169
:1044E000AE13882391F18091891390918A13DC0196
:1044F000ED91FC910284F385E02D19958093AF1323
:10450000803561F0843521F1809387138091B01359
:10451000809388131F910F910C9400008091831356
:1045200090918413909386138093851380918913BF
:1045300090918A13DC01ED91FC910284F385E02DCA
:10454000199590938413809383131F910F9108956D
:104550008091891390918A13DC01ED91FC91028482
:10456000F385E02D1995FC01FF27E333F10568F78A
:104570008827E254FD4D8F4F0C94934CF122F52285
:10458000F922FD220123052309230D2311231523DD
:1045900019231D232123252329232D2331233523CB
:1045A00039233D234123452349234D2351235523BB
:1045B00059235D236123652369236D2371237523AB
:1045C00079237D238123852389238D23912395239B
:1045D00099239D23A123A523A923AD23B123B5238B
:1045E000B9231F910F910C9400001F910F910C940F
:1045F00000001F910F910C9400001F910F910C94DB
:1046000000001F910F910C9400001F910F910C94CA
:1046100000001F910F910C9400001F910F910C94BA
:1046200000001F910F910C9400001F910F910C94AA
:1046300000001F910F910C9400001F910F910C949A
:1046400000001F910F910C9400001F910F910C948A
:1046500000001F910F910C9400001F910F910C947A
:1046600000001F910F910C9400001F910F910C946A
:1046700000001F910F910C9400001F910F910C945A
:1046800000001F910F910C9400001F910F910C944A
:1046900000001F910F910C9400001F910F910C943A
:1046A00000001F910F910C9400001F910F910C942A
:1046B00000001F910F910C9400001F910F910C941A
:1046C00000001F910F910C9400001F910F910C940A
:1046D00000001F910F910C9400001F910F910C94FA
:1046E00000001F910F910C9400001F910F910C94EA
:1046F00000001F910F910C9400001F910F910C94DA
:1047000000001F910F910C9400001F910F910C94C9
:1047100000001F910F910C9400001F910F910C94B9
:1047200000001F910F910C9400001F910F910C94A9
:1047300000001F910F910C9400001F910F910C9499
:1047400000001F910F910C9400001F910F910C9489
:1047500000001F910F910C9400001F910F910C9479
:1047600000001F910F910C9400001F910F910C9469
:1047700000001F910F910C940000CF93DF93EC0188
:1047800088819981009711F00E94374D1982188213
:104790001D821C821B821A82DF91CF910895FC0139
:1047A00080819181009711F00C94374D0895CF933B
:1047B000DF93EC018A8D9B8D0E94374DCE01DF91F6
:1047C000CF910C94374D0C94D723CF93DF93EC010A
:1047D00088E093E0998388838C899D89009711F004
:1047E0000E94374D8E899F89009711F00E94374DA6
:1047F000888D998D009711F00E94374D8A8D9B8D81
:10480000009711F00E94374D8A819B81009721F01B
:10481000DF91CF910C94C10CDF91CF91089522E1EB
:1048200033E0FC01318320830C94E523CF93DF93A5
:10483000EC010E940F24CE01DF91CF910C94374DF3
:1048400024ED32E0FC01318320830C94E523CF93E7
:10485000DF93EC010E942024CE01DF91CF910C94D4
:10486000374DCF93DF93EC018EED92E099838883EF
:104870008B899C89009711F00E94374D8A819B811A
:10488000009721F0DF91CF910C94C10CDF91CF9173
:104890000895CF93DF93EC010E943124CE01DF9184
:1048A000CF910C94374D26EE32E0FC01318320830A
:1048B0000C943124CF93DF93EC010E945324CE015A
:1048C000DF91CF910C94374D0E94A14E0F931F930F
:1048D000F801DC018D919C918F3F980711F40E94A3
:1048E000A14E80836183528343833483258386E092
:1048F00090E01F910F910895EF92FF920F931F93F5
:10490000CF93DF93EC018617970781F0FB010081BD
:1049100011810115110539F0E480F580B7010E947D
:104920006B2181110BC0CE010E94BD23CE01DF910E
:10493000CF911F910F91FF90EF900895FD82EC822F
:10494000B801888199810E94B64EF0CFFC01118296
:10495000108213821282158214820C947C24EF92AE
:10496000FF920F931F93CF93DF93EC017B0119828A
:1049700018821B821A821D821C82FB01019000207A
:10498000E9F731978F01061B170BB8010E946B21C5
:10499000811109C0CE01DF91CF911F910F91FF903E
:1049A000EF900C94BD231D830C83B70188819981FE
:1049B000DF91CF911F910F91FF90EF900C94B64E25
:1049C000FB0101900020E9F73197AF01461B570B1F
:1049D000DC01ED91FC910280F381E02D19948F921E
:1049E0009F92AF92BF92EF92FF920F931F93CF933C
:1049F000DF93CDB7DEB7A1970FB6F894DEBF0FBE39
:104A0000CDBF7C01FA01CB0119A2223008F42AE0C3
:104A10008E010F5D1F4F822E912CB12CA12CBF0156
:104A2000A50194010E94624CF901CA016A300CF59B
:104A3000605DD8016E938D01232B242B252B79F7F4
:104A400090E080E0109721F0BD01C7010E94E024B2
:104A5000A1960FB6F894DEBF0FBECDBFDF91CF9108
:104A60001F910F91FF90EF90BF90AF909F908F900C
:104A70000895695CDECF8F929F92AF92BF92CF92E2
:104A8000DF92EF92FF920F931F93CF93DF937C01FE
:104A9000EB016C0182E0C80ED11C4701E5E08E0EEF
:104AA000911C10E000E0F60141916F0150E070E0D0
:104AB00060E02AE0CE010E94EF245C01E881F981E8
:104AC0000190F081E02D6EE2CE0119958A0D9B1DBB
:104AD000080F191FC814D90431F7F701458150E0B8
:104AE00070E060E02AE0CE010E94EF24800F911F69
:104AF000DF91CF911F910F91FF90EF90DF90CF90BA
:104B0000BF90AF909F908F900895CF92DF92EF92D9
:104B1000FF92CF93DF936A017B01BC018BE893E1A5
:104B20000E947C24C3E8D3E1CE86DF86E88AF98A36
:104B30008E819F814C855D8568857985DC01ED914D
:104B4000FC910280F381E02D19956EE273E08E8175
:104B50009F810E94E0244E855F85688979892AE0DB
:104B60008E819F810E94EF2460E373E08E819F819C
:104B7000DF91CF91FF90EF90DF90CF900C94E024E5
:104B8000CF93DF93BC0181E790E10E94E024EC0128
:104B900064E373E081E790E10E94E0248C0F9D1FA5
:104BA000DF91CF9108958F929F92AF92BF92CF9253
:104BB000DF92EF92FF920F931F93CF93DF9300D07A
:104BC00000D0CDB7DEB79B01AC01A6E0B0E00E94FB
:104BD000574C6B017C019C018B0106501109210986
:104BE0003109000F111FF801E55FF34F80819181BA
:104BF00067EE73E1019711F00C941131CE0101962B
:104C00000E94A62441E050E060E070E0CE010196F1
:104C10000E948525CE0101960E94CF2362E070E0BC
:104C200080E090E00E94B306F801E552F14F8081E8
:104C3000918169EF73E1019711F00C941A31CE0163
:104C400001960E94A62441E050E060E070E0CE01B1
:104C500001960E948525CE0101960E94CF2362E035
:104C600070E080E090E00E94B306F801E557F14F54
:104C7000808191816FEF73E1019711F00C942331E2
:104C8000CE0101960E94A62441E050E060E070E071
:104C9000CE0101960E948525CE0101960E94CF2368
:104CA00062E070E080E090E00E94B306F801E55C0D
:104CB000F14F8081918165E074E1019711F00C94CE
:104CC0002C31CE0101960E94A62441E050E060E024
:104CD00070E0CE0101960E948525CE0101960E94CA
:104CE000CF2362E070E080E090E00E94B306F8011C
:104CF000E553F04F80809180B12CA12C6DEE73E1D3
:104D0000CE0101960E94A624B501A401CE01019610
:104D10000E948525CE0101960E94CF2362E070E0BB
:104D200080E090E00E94B306F801E55DF04F8080DE
:104D30009180B12CA12C63EF73E1CE0101960E940A
:104D4000A624B501A401CE0101960E948525CE01BD
:104D500001960E94CF2362E070E080E090E00E9424
:104D6000B306F801E559F44F80809180B12CA12C55
:104D70006BE074E1CE0101960E94A624B501A40166
:104D8000CE0101960E948525CE0101960E94CF2377
:104D900062E070E080E090E00E94B306F801E55622
:104DA000F24F80809180092C000CAA08BB0861E1B9
:104DB00074E1CE0101960E94A624B501A401CE01A2
:104DC00001960E948525CE0101960E94CF2362E0C4
:104DD00070E080E090E00E94B306F801E550F34FE8
:104DE00080809180092C000CAA08BB0867E174E15F
:104DF000CE0101960E94A624B501A401CE01019620
:104E00000E948525CE0101960E94CF2362E070E0CA
:104E100080E090E00E94B306F801E55AF34F8080ED
:104E20009180092C000CAA08BB086DE174E1CE0149
:104E300001960E94A624B501A401CE0101960E940C
:104E40008525CE0101960E94CF2362E070E080E0CC
:104E500090E00E94B306F801E55EF44F80809180F7
:104E6000B12CA12C63E274E1CE0101960E94A6242C
:104E7000B501A401CE0101960E948525CE010196BF
:104E80000E94CF2362E070E080E090E00E94B306D1
:104E9000F801E553F54F80809180B12CA12C69E297
:104EA00074E1CE0101960E94A624B501A401CE01B1
:104EB00001960E948525CE0101960E94CF2362E0D3
:104EC00070E080E090E00E94B306F801E554F44FF2
:104ED00080809180B12CA12C6FE274E1CE0101960B
:104EE0000E94A624B501A401CE0101960E94852549
:104EF000CE0101960E94CF2362E070E080E090E056
:104F00000E94B30697018601055011092109310954
:104F1000000F111FF801E55FF34F8081918165E378
:104F200074E1019711F00C943531CE0101960E9485
:104F3000A62441E050E060E070E0CE0101960E94BE
:104F40008525CE0101960E94CF2362E070E080E0CB
:104F500090E00E94B306F801E552F14F8081918103
:104F600067E474E1019711F00C943E31CE01019693
:104F70000E94A62441E050E060E070E0CE0101967E
:104F80000E948525CE0101960E94CF2362E070E049
:104F900080E090E00E94B306F801E557F14F808170
:104FA00091816DE474E1019711F00C944731CE01C9
:104FB00001960E94A62441E050E060E070E0CE013E
:104FC00001960E948525CE0101960E94CF2362E0C2
:104FD00070E080E090E00E94B306F801E55CF14FDC
:104FE0008081918163E574E1019711F00C94503157
:104FF000CE0101960E94A62441E050E060E070E0FE
:10500000CE0101960E948525CE0101960E94CF23F4
:1050100062E070E080E090E00E94B306F801E553A2
:10502000F04F80809180B12CA12C6BE374E1CE0114
:1050300001960E94A624B501A401CE0101960E940A
:105040008525CE0101960E94CF2362E070E080E0CA
:1050500090E00E94B306F801E55DF04F80809180FA
:10506000B12CA12C61E474E1CE0101960E94A6242A
:10507000B501A401CE0101960E948525CE010196BD
:105080000E94CF2362E070E080E090E00E94B306CF
:10509000F801E559F44F80809180B12CA12C69E58D
:1050A00074E1CE0101960E94A624B501A401CE01AF
:1050B00001960E948525CE0101960E94CF2362E0D1
:1050C00070E080E090E00E94B306F801E556F24FF0
:1050D00080809180092C000CAA08BB086FE574E160
:1050E000CE0101960E94A624B501A401CE0101962D
:1050F0000E948525CE0101960E94CF2362E070E0D8
:1051000080E090E00E94B306F801E550F34F808004
:105110009180092C000CAA08BB0865E674E1CE0159
:1051200001960E94A624B501A401CE0101960E9419
:105130008525CE0101960E94CF2362E070E080E0D9
:1051400090E00E94B306F801E55AF34F8080918009
:10515000092C000CAA08BB086BE674E1CE0101968D
:105160000E94A624B501A401CE0101960E948525C6
:10517000CE0101960E94CF2362E070E080E090E0D3
:105180000E94B306F801E55EF44F80809180B12C57
:10519000A12C61E774E1CE0101960E94A624B5011D
:1051A000A401CE0101960E948525CE0101960E94A0
:1051B000CF2362E070E080E090E00E94B306F80147
:1051C000E553F54F80809180B12CA12C67E774E105
:1051D000CE0101960E94A624B501A401CE0101963C
:1051E0000E948525CE0101960E94CF2362E070E0E7
:1051F00080E090E00E94B306F801E554F44F80800F
:105200009180B12CA12C6DE774E1CE0101960E9432
:10521000A624B501A401CE0101960E948525CE01E8
:1052200001960E94CF2362E070E080E090E00E944F
:10523000B306970186010450110921093109000FB5
:10524000111FF801E55FF34F8081918163E874E1FC
:10525000019711F00C945931CE0101960E94A624B9
:1052600041E050E060E070E0CE0101960E948525AB
:10527000CE0101960E94CF2362E070E080E090E0D2
:105280000E94B306F801E552F14F8081918165E9F2
:1052900074E1019711F00C946231CE0101960E94E5
:1052A000A62441E050E060E070E0CE0101960E944B
:1052B0008525CE0101960E94CF2362E070E080E058
:1052C00090E00E94B306F801E557F14F808191818B
:1052D0006BE974E1019711F00C946B31CE010196EA
:1052E0000E94A62441E050E060E070E0CE0101960B
:1052F0000E948525CE0101960E94CF2362E070E0D6
:1053000080E090E00E94B306F801E55CF14F8081F7
:10531000918161EA74E1019709F0E5C7CE01019638
:105320000E94A62441E050E060E070E0CE010196CA
:105330000E948525CE0101960E94CF2362E070E095
:1053400080E090E00E94B306F801E553F04F8080C2
:105350009180B12CA12C69E874E1CE0101960E94E4
:10536000A624B501A401CE0101960E948525CE0197
:1053700001960E94CF2362E070E080E090E00E94FE
:10538000B306F801E55DF04F80809180B12CA12C2F
:105390006FE874E1CE0101960E94A624B501A40134
:1053A000CE0101960E948525CE0101960E94CF2351
:1053B00062E070E080E090E00E94B306F801E559F9
:1053C000F44F80809180B12CA12C67EA74E1CE016A
:1053D00001960E94A624B501A401CE0101960E9467
:1053E0008525CE0101960E94CF2362E070E080E027
:1053F00090E00E94B306F801E556F24F808091805C
:10540000092C000CAA08BB086DEA74E1CE010196D4
:105410000E94A624B501A401CE0101960E94852513
:10542000CE0101960E94CF2362E070E080E090E020
:105430000E94B306F801E550F34F80809180092C5B
:10544000000CAA08BB0863EB74E1CE0101960E9430
:10545000A624B501A401CE0101960E948525CE01A6
:1054600001960E94CF2362E070E080E090E00E940D
:10547000B306F801E55AF34F80809180092C000CA7
:10548000AA08BB0869EB74E1CE0101960E94A6242C
:10549000B501A401CE0101960E948525CE01019699
:1054A0000E94CF2362E070E080E090E00E94B306AB
:1054B000F801E55EF44F80809180B12CA12C6FEB58
:1054C00074E1CE0101960E94A624B501A401CE018B
:1054D00001960E948525CE0101960E94CF2362E0AD
:1054E00070E080E090E00E94B306F801E553F54FCC
:1054F00080809180B12CA12C65EC74E1CE010196E5
:105500000E94A624B501A401CE0101960E94852522
:10551000CE0101960E94CF2362E070E080E090E02F
:105520000E94B306F801E554F44F80809180B12CBD
:10553000A12C6BEC74E1CE0101960E94A624B5016A
:10554000A401CE0101960E948525CE0101960E94FC
:10555000CF2362E070E080E090E00E94B306970104
:1055600086010350110921093109000F111FF801AB
:10557000E55FF34F8081918161ED74E1019709F05E
:10558000BAC6CE0101960E94A62441E050E060E038
:1055900070E0CE0101960E948525CE0101960E9401
:1055A000CF2362E070E080E090E00E94B306F80153
:1055B000E552F14F8081918163EE74E1019709F02A
:1055C000A2C6CE0101960E94A62441E050E060E010
:1055D00070E0CE0101960E948525CE0101960E94C1
:1055E000CF2362E070E080E090E00E94B306F80113
:1055F000E557F14F8081918169EE74E1019709F0DF
:105600008AC6CE0101960E94A62441E050E060E0E7
:1056100070E0CE0101960E948525CE0101960E9480
:10562000CF2362E070E080E090E00E94B306F801D2
:10563000E55CF14F808191816FEE74E1019709F093
:1056400072C6CE0101960E94A62441E050E060E0BF
:1056500070E0CE0101960E948525CE0101960E9440
:10566000CF2362E070E080E090E00E94B306F80192
:10567000E553F04F80809180B12CA12C67ED74E14F
:10568000CE0101960E94A624B501A401CE01019687
:105690000E948525CE0101960E94CF2362E070E032
:1056A00080E090E00E94B306F801E55DF04F808055
:1056B0009180B12CA12C6DED74E1CE0101960E9478
:1056C000A624B501A401CE0101960E948525CE0134
:1056D00001960E94CF2362E070E080E090E00E949B
:1056E000B306F801E559F44F80809180B12CA12CCC
:1056F00065EF74E1CE0101960E94A624B501A401D4
:10570000CE0101960E948525CE0101960E94CF23ED
:1057100062E070E080E090E00E94B306F801E55698
:10572000F24F80809180092C000CAA08BB086BEF17
:1057300074E1CE0101960E94A624B501A401CE0118
:1057400001960E948525CE0101960E94CF2362E03A
:1057500070E080E090E00E94B306F801E550F34F5E
:1057600080809180092C000CAA08BB0861E075E1DB
:10577000CE0101960E94A624B501A401CE01019696
:105780000E948525CE0101960E94CF2362E070E041
:1057900080E090E00E94B306F801E55AF34F808064
:1057A0009180092C000CAA08BB0867E075E1CE01C6
:1057B00001960E94A624B501A401CE0101960E9483
:1057C0008525CE0101960E94CF2362E070E080E043
:1057D00090E00E94B306F801E55EF44F808091806E
:1057E000B12CA12C6DE075E1CE0101960E94A6249A
:1057F000B501A401CE0101960E948525CE01019636
:105800000E94CF2362E070E080E090E00E94B30647
:10581000F801E553F54F80809180B12CA12C63E114
:1058200075E1CE0101960E94A624B501A401CE0126
:1058300001960E948525CE0101960E94CF2362E049
:1058400070E080E090E00E94B306F801E554F44F68
:1058500080809180B12CA12C69E175E1CE01019687
:105860000E94A624B501A401CE0101960E948525BF
:10587000CE0101960E94CF2362E070E080E090E0CC
:105880000E94B306970186010250110921093109CE
:10589000000F111FF801E55FF34F808191816FE1E7
:1058A00075E1019709F047C5CE0101960E94A62433
:1058B00041E050E060E070E0CE0101960E94852555
:1058C000CE0101960E94CF2362E070E080E090E07C
:1058D0000E94B306F801E552F14F8081918161E3A6
:1058E00075E1019709F02FC5CE0101960E94A6240B
:1058F00041E050E060E070E0CE0101960E94852515
:10590000CE0101960E94CF2362E070E080E090E03B
:105910000E94B306F801E557F14F8081918167E35A
:1059200075E1019709F017C5CE0101960E94A624E2
:1059300041E050E060E070E0CE0101960E948525D4
:10594000CE0101960E94CF2362E070E080E090E0FB
:105950000E94B306F801E55CF14F808191816DE30F
:1059600075E1019709F0FFC4CE0101960E94A624BB
:1059700041E050E060E070E0CE0101960E94852594
:10598000CE0101960E94CF2362E070E080E090E0BB
:105990000E94B306F801E553F04F80809180B12C4E
:1059A000A12C65E275E1CE0101960E94A624B50105
:1059B000A401CE0101960E948525CE0101960E9488
:1059C000CF2362E070E080E090E00E94B306F8012F
:1059D000E55DF04F80809180B12CA12C6BE275E1E8
:1059E000CE0101960E94A624B501A401CE01019624
:1059F0000E948525CE0101960E94CF2362E070E0CF
:105A000080E090E00E94B306F801E559F44F8080F1
:105A10009180B12CA12C63E475E1CE0101960E9426
:105A2000A624B501A401CE0101960E948525CE01D0
:105A300001960E94CF2362E070E080E090E00E9437
:105A4000B306F801E556F24F80809180092C000CD6
:105A5000AA08BB0869E475E1CE0101960E94A6245C
:105A6000B501A401CE0101960E948525CE010196C3
:105A70000E94CF2362E070E080E090E00E94B306D5
:105A8000F801E550F34F80809180092C000CAA08A2
:105A9000BB086FE475E1CE0101960E94A624B50112
:105AA000A401CE0101960E948525CE0101960E9497
:105AB000CF2362E070E080E090E00E94B306F8013E
:105AC000E55AF34F80809180092C000CAA08BB088E
:105AD00065E575E1CE0101960E94A624B501A401F9
