:020000040000FA
:100000000C9497030C94C8030C94C8030C94C80375
:100010000C94C8030C94C8030C94C8030C94C80334
:100020000C94C8030C94C8030C94C8030C94C80324
:100030000C94C8030C94C8030C94C8030C94C80314
:100040000C94C8030C94C8030C94C8030C94C80304
:100050000C94C8030C94C8030C94C8030C94E23BA2
:100060000C94C8030C94B83B0C948E3B0C94C803BE
:100070000C94C8030C94C8030C94C8030C94C803D4
:100080000C94C8030C94C8030C94C8030C94C803C4
:100090000C94C8030C94C8030C94C8030C94C803B4
:1000A0000C94C8030C94C8030C94C8030C94C803A4
:1000B0000C94C8030C94C8030C94C8030C94C80394
:1000C0000C94C8030C94C8030C94C8030C94643BB0
:1000D0000C943A3B0C94C8030C94103B0C94E63AF5
:1000E0000C94C8030C948F090C9427060C945E1092
:1000F0000C9451230C9468240C9425230C9489238C
:100100000C9411230C9435240C94B7080C944A06D3
:100110000C9471230C945C0C0C949B470C942D2331
:100120000C9419230C944F200C942B060C9424242B
:100130000C9450180C9461100C94DC1F0C944D23FB
:100140000C94B30E0C942C3C0C941A390C949137EB
:100150000C94F2100C947F190C94F0170C94320A42
:100160000C9412120C9408460C94A73A0C94634613
:100170000C94BE460C9493050C940C060C94C71C6E
:100180000C943D0C0C94CD160C9400090C944A115F
:100190000C9450060C943F250C94F5220C94201DD1
:1001A0000C9421040C943D110C9404090C94E83532
:1001B0000C94AD230C94D6190C9406370C94B90802
:1001C0000C9475230C9442060C94DA200C94A12311
:1001D0000C948F480C94AF090C9476040C949308FB
:1001E0000C9432060C9440360C9467040C947923DA
:1001F0000C948A040C94690A0C9421150C94D70B66
:100200000C94C6120C94A5230C94A5100C94960A79
:100210000C9455230C945E110C9462060C945406B5
:100220000C946D230C948E370C94BC090C94E7232A
:100230000C9447100C9414090C94F71A0C941504A0
:100240000C9446060C944D240C942B240C94A3453A
:100250000C948D230C9423100C9429230C941E0AC7
:100260000C9499230C94F9220C9484340C94352327
:100270000C9411040C9447490C94CE370C94DB1762
:100280000C94AD080C94A3490C94D21B0C94430A13
:100290000C9408120C946D360C94A8150C94061549
:1002A0000C94DB230C94603C0C9449230C94BA0C02
:1002B0000C9488080C94FD220C9431230C94720841
:1002C0000C946F150C94840B0C94FF490C945E06EF
:1002D0000C9446050C94B5230C9481230C94010ACC
:1002E0000C9495230C941A240C94AE1A0C94D512E9
:1002F0000C9439230C94BD230C9423060C945E2497
:100300000C9491230C94200A0C94D2110C941F4746
:100310000C946A240C941D230C942F060C94C5088D
:100320000C9401230C9421230C9459230C940D2339
:100330000C9448110C942F450C94550A0C94F01B06
:100340000C9461230C941B090C9458060C94B9234B
:100350000C9469230C9441230C949D230C94BC08A9
:100360000C945D370C94A9080C946B180C944523DD
:100370000C94111B0C9417480C94B1230C94201C62
:100380000C94AF0C0C9411060C94EB480C94B70E23
:100390000C945D230C9415230C94AB0A0C944D150E
:1003A0000C9462350C9419110C9438060C94330B90
:1003B0000C944D0B0C94A9230C94700B0C945C08BA
:1003C0000C946E390C947D230C9465230C947F114E
:1003D0000C948A110C9474110C949C1C0C94092399
:1003E0000C944B0A0C94FC080C94130B0C940523EE
:1003F0000C943C060C9411120C9469110C94132467
:100400000C949C0C0C9498040C94D9100C945724C4
:100410000C945B100C94CD1A0C943D230C94852302
:100420000C94EE0F00C0C101C30302C2C60607C789
:1004300005C5C404CC0C0DCD0FCFCE0E0ACACB0B14
:10044000C90908C8D81819D91BDBDA1A1EDEDF1F44
:10045000DD1D1CDC14D4D515D71716D6D21213D334
:1004600011D1D010F03031F133F3F23236F6F737E4
:10047000F53534F43CFCFD3DFF3F3EFEFA3A3BFBD4
:1004800039F9F83828E8E929EB2B2AEAEE2E2FEF84
:100490002DEDEC2CE42425E527E7E62622E2E323F4
:1004A000E12120E0A06061A163A3A26266A6A76724
:1004B000A56564A46CACAD6DAF6F6EAEAA6A6BAB94
:1004C00069A9A86878B8B979BB7B7ABABE7E7FBFC4
:1004D0007DBDBC7CB47475B577B7B67672B2B373B4
:1004E000B17170B050909151935352929656579764
:1004F000559594549C5C5D9D5F9F9E5E5A9A9B5B54
:1005000099595898884849894B8B8A4A4E8E8F4F03
:100510008D4D4C8C44848545874746868242438373
:100520004181804000C1814001C0804101C08041C3
:1005300000C1814001C0804100C1814000C18140B3
:1005400001C0804101C0804100C1814000C18140A3
:1005500001C0804100C1814001C0804101C0804193
:1005600000C1814001C0804100C1814000C1814083
:1005700001C0804100C1814001C0804101C0804173
:1005800000C1814000C1814001C0804101C0804163
:1005900000C1814001C0804100C1814000C1814053
:1005A00001C0804101C0804100C1814000C1814043
:1005B00001C0804100C1814001C0804101C0804133
:1005C00000C1814000C1814001C0804101C0804123
:1005D00000C1814001C0804100C1814000C1814013
:1005E00001C0804100C1814001C0804101C0804103
:1005F00000C1814001C0804100C1814000C18140F3
:1006000001C0804101C0804100C1814000C18140E2
:1006100001C0804100C1814001C0804101C08041D2
:1006200000C1814000002100240027002A002D0085
:100630003000330001010000040107010A0100003D
:100640002200250028002B002E003100340002017A
:100650000000050108010B0105050505070508084F
:100660000808020202020A0A08080404040401013C
:100670000101010101010303030303030303040751
:1006800007070C0C0C0C0C0C0C0C020202020606E8
:100690000606060606060B0B0B0B0B0B0B0B0102DB
:1006A0001020200808102040102040800201020184
:1006B000080402010102040810204080804020103C
:1006C0000804020180040201804020100804020195
:1006D00008040201010204081020408001020408FD
:1006E0001020408000000A0B02090C0D0E080703C1
:1006F00004010000000000000000000000000000F5
:1007000000000000000000000000000000000000E9
:1007100012111000000000000000000000000000A6
:1007200000000000000000000000603C2C3C112490
:100730001FBECFEFD1E2DEBFCDBF00E00CBF1AE09D
:10074000A0E0B2E0E6E4F1EA00E00BBF02C00790EF
:100750000D92AA3BB107D9F726E1AAEBBAE001C096
:100760001D92A635B207E1F713E0C6E9D3E000E039
:1007700006C021970109802FFE010E94C14BC53997
:10078000D10780E00807A9F70E943D410C949150E1
:100790000C94000020912216309123161216130695
:1007A0005CF480911A1690911B1697FD05C082305B
:1007B000910534F004971CF16FEF7FEFCB010895A2
:1007C000E0912016F0912116809124169091251623
:1007D000E80FF91F608170E090E080E0215031095E
:1007E000309323162093221620912416309125163B
:1007F0002F5F3F4F30932516209324160895809144
:10080000241690912516880F991FE0912016F091DB
:100810002116E80FF91F60817181DECF8CBD9DBD6F
:100820000895FC01818D928D08950895823091057F
:1008300038F0880F991F880F991F05970197F1F7D6
:100840000895AF92BF92CF92DF92EF92FF920F93F3
:100850001F93CF93DF936C017B018B01040F151F56
:10086000EB015E01AE18BF08C017D10759F06991BE
:10087000D601ED91FC910190F081E02DC601199512
:10088000892B79F7C501DF91CF911F910F91FF90CF
:10089000EF90DF90CF90BF90AF900895FC01A089BA
:1008A000B1898C91A689B78982FD0FC09C91818DF9
:1008B0008F5F8F73228D821749F0A18DAE0FBF2FEE
:1008C000B11D5D969C93818F08958C910895FC01D4
:1008D000538D448D252F30E0842F90E0821B930BA5
:1008E000541710F0CF96089501970895FC01918D4B
:1008F000828D981761F0A28DAE0FBF2FB11D5D964E
:100900008C91928D9F5F9F73928F90E008958FEFEF
:100910009FEF0895FC01918D828D981731F0828DA3
:10092000E80FF11D858D90E008958FEF9FEF0895FA
:10093000FC01918D228D892F90E0805C9F4F821B5E
:1009400091098F73992708958AEE92E10E94980485
:1009500021E0892B09F420E0822F08958AE591E1B6
:100960000E94980421E0892B09F420E0822F089549
:1009700085E790E10E94980421E0892B09F420E0AA
:10098000822F0895CF92DF92EF92FF921F93CF9321
:10099000DF93EC016A017B01122FE889F98982E07B
:1009A0008083C11481EED806E104F104A1F060E077
:1009B00079E08DE390E0A70196010E94904B2150D1
:1009C00031094109510956954795379527952115C4
:1009D00080E1380798F0E889F989108260E874E8C6
:1009E0008EE190E0A70196010E94904B21503109C1
:1009F000410951095695479537952795EC85FD8511
:100A00003083EE85FF852083188EEC89FD89108365
:100A1000EA89FB89808180618083EA89FB89808102
:100A200088608083EA89FB89808180688083EA8985
:100A3000FB8980818F7D8083DF91CF911F91FF9013
:100A4000EF90DF90CF900895FC01A48DA80FB92FEF
:100A5000B11DA35ABF4F2C91848D90E001968F73E6
:100A60009927848FA689B7892C93A089B1898C9105
:100A7000837080648C93938D848D981306C0028854
:100A8000F389E02D80818F7D80830895EF92FF921E
:100A90000F931F93CF93DF93EC0181E0888F9B8DA1
:100AA0008C8D98131AC0E889F989808185FF15C05B
:100AB0009FB7F894EE89FF896083E889F98980817E
:100AC0008370806480839FBF81E090E0DF91CF914D
:100AD0001F910F91FF90EF900895F62E0B8D10E06F
:100AE0000F5F1F4F0F731127E02E8C8D8E110CC0DE
:100AF0000FB607FCFACFE889F989808185FFF5CF29
:100B0000CE010E942405F1CFEB8DEC0FFD2FF11DDE
:100B1000E35AFF4FF0829FB7F8940B8FEA89FB8965
:100B200080818062CFCFCF93DF93EC01888D8823C3
:100B3000B9F0AA89BB89E889F9898C9185FD03C040
:100B4000808186FD0DC00FB607FCF7CF8C9185FF25
:100B5000F2CF808185FFEDCFCE010E942405E9CF41
:100B6000DF91CF91089580E090E0892B29F00E94D9
:100B7000B80481110E94000080E090E0892B49F0C8
:100B800080E090E0892B29F00E94000081110E94F2
:100B9000000080E090E0892B29F00E94AE048111D2
:100BA0000E94000080E090E0892B29F00E94A404BC
:100BB00081110C9400000895282F30E0F901EC51C8
:100BC000F94F9491F901E256F94F4491285A394F5F
:100BD000F9012491222309F435C0992311F1915090
:100BE0009231F8F4E92FF0E08827E650FA4F8F4F62
:100BF0000C94C14B2B062F060C0623062706110664
:100C0000320638063C06420646064A065006540698
:100C1000110658065E066206809180008F778093E9
:100C20008000E22FF0E0EE0FFF1FE25CF94FA5918C
:100C3000B4918FB7F894EC91611148C040954E2360
:100C40004C938FBF0895809180008F7DE8CF809175
:100C50008000877FE4CF84B58F7784BDE2CF84B5F1
:100C60008F7DFBCF8091B0008F778093B000D9CF7C
:100C70008091B0008F7DF9CF809190008F77809325
:100C80009000CFCF809190008F7DF9CF8091900020
:100C9000877FF5CF8091A0008F778093A000C1CF90
:100CA0008091A0008F7DF9CF8091A000877FF5CF44
:100CB000809120018F7780932001B3CF8091200114
:100CC0008F7DF9CF80912001877FF5CF4E2BB8CF54
:100CD000CF93DF9390E0FC01E256F94F2491885ABC
:100CE000994FFC0184918823D1F090E0880F991FDF
:100CF000FC01EC5DF94FA591B491FC01E25CF94F68
:100D0000C591D49161110EC09FB7F8948C91E22FD8
:100D1000E0958E238C932881E223E8839FBFDF91A7
:100D2000CF9108958FB7F894EC91E22BEC938FBF9D
:100D3000F6CF3FB7F8948091C50A9091C60AA0916A
:100D4000C70AB091C80A26B5A89B05C02F3F19F065
:100D50000196A11DB11D3FBFBA2FA92F982F88273B
:100D6000BC01CD01620F711D811D911D42E0660F16
:100D7000771F881F991F4A95D1F708958F929F92E8
:100D8000AF92BF92CF92DF92EF92FF926B017C0104
:100D90000E9499064B015C01C114D104E104F104E5
:100DA000B9F00E949906681979098A099B09683E79
:100DB00073408105910580F321E0C21AD108E10852
:100DC000F10888EE880E83E0981EA11CB11CE4CFC8
:100DD000FF90EF90DF90CF90BF90AF909F908F905B
:100DE00008952FB7F8946091C10A7091C20A80915A
:100DF000C30A9091C40A2FBF0895FC0120812EBD23
:100E00009B012150310941F051810DB407FEFDCF06
:100E10004EB55EBD4193F5CF61507109860F971FA6
:100E20000DB407FEFDCF2EB5FC0120830895E0919F
:100E3000BC0AF091BD0A80819091BB0A892B808306
:100E40000895E091BC0AF091BD0A90818091BB0A9F
:100E500080958923808308958EBD00000DB407FE20
:100E6000FDCF8EB50895AF92BF92CF92DF92EF92F1
:100E7000FF920F931F93CF93DF9300D000D01F9268
:100E80001F92CDB7DEB78C017B016A018091731090
:100E90008333E1F45801A40EB51EA016B10609F47F
:100EA0006FC00E94210780EF0E942C07812F0E94B3
:100EB0002C07802F0E942C070F5F1F4FF701819195
:100EC0007F010E942C070E941707E7CF5B01A40E49
:100ED000B51E8433C1F40E94210719830A838D2D26
:100EE00080688B83CC8264E070E0CE0101960E9422
:100EF000FD06AE14BF0409F441C0F70181917F01E2
:100F00000E942C07F6CF0E9421070F3F110509F020
:100F100028F419820A8384E08B830CC017FD17C064
:100F200019820A8333E0169507953A95E1F7007E1A
:100F30000C600B8386E0C816D104A0F5F701DE0132
:100F40001496EA15FB0599F081918D93FACFC801AB
:100F500026E0969587952A95E1F7807E19830A8386
:100F60000115104C10F48461D7CF8C61D5CFB60138
:100F70006D5F7F4FCE0101960E94FD060E9417070C
:100F8000C60128960FB6F894DEBF0FBECDBFDF9125
:100F9000CF911F910F91FF90EF90DF90CF90BF9076
:100FA000AF90089563E070E0CE0101960E94FD06C7
:100FB000F70181917F010E942C07AE14BF04C1F795
:100FC000DDCFCF93DF931F92CDB7DEB7898341E0AA
:100FD00050E0BE016F5F7F4F90E080E00E943307DA
:100FE0000F90DF91CF91089590E0209173102333FB
:100FF00039F40C96982F990F990F990F80E0089566
:101000004896F8CFDA01E091BF0AF0E0FE2FEE2714
:10101000E60FF71F90E0982F8827A901BD018E0FDA
:101020009F1F0C943307CF93DF931F921F92CDB76E
:10103000DEB779836A8322E030E0AE014F5F5F4F15
:1010400060E170E00E9402080F900F90DF91CF9155
:101050000895CF93DF931F921F92CDB7DEB77983A8
:101060006A8322E030E0AE014F5F5F4F64E070E0E2
:101070000E9402080F900F90DF91CF910895CF93B7
:10108000DF931F92CDB7DEB72091BF0A30E0322F39
:101090002227260F371F90E0982F8827498341E0A9
:1010A00050E0BE016F5F7F4F820F931F0E94330796
:1010B0000F90DF91CF910895CF93DF931F92CDB71B
:1010C000DEB76983DC01ED91FC910280F381E02DB4
:1010D00041E050E0BE016F5F7F4F19950F90DF91A7
:1010E000CF910895CF93DF931F92CDB7DEB7698379
:1010F000DC01ED91FC910280F381E02D41E050E0B4
:10110000BE016F5F7F4F19950F90DF91CF910895CA
:10111000FC019485FB018485981303C081E098301D
:1011200008F080E00895CF93DF931F92CDB7DEB72C
:101130006983DC01ED91FC910280F381E02D41E0B7
:1011400050E0BE016F5F7F4F19950F90DF91CF91F7
:101150000895FC01768765870895DC01ED91FC9187
:10116000068CF78DE02D199591E089270895862F3B
:10117000089581E08627089521E0FC018485883068
:1011800008F020E0822F08950895FF920F931F9397
:10119000CF93DF93EB01FC01178A168A2A81211174
:1011A00009C02B81211106C02C81211103C02D8182
:1011B000222301F141155105E9F08A01FC01F08C6F
:1011C00080E591E00E940E04AE014E5F5F4F24E087
:1011D00030E06CE070E08F2D0E940208B8018F2D86
:1011E0000E94130881E090E0DF91CF911F910F9151
:1011F000FF90089580E0F7CFFC01848595850895E0
:10120000FC018489958908952CE133E0FC01318348
:101210002083FB014089518962897389FC014283E3
:101220005383648375830895DC01ED91FC91048CF4
:10123000F58DE02D19946F927F928F929F92AF92CD
:10124000BF92CF92DF92EF92FF920F931F93CF93B3
:10125000DF93FA018901DC015A966D907C90C12CD4
:10126000D12C76013097C1F02081318142815381A8
:10127000A8EEB3E00E94854B6B017C01648175810F
:101280008681978128EE33E040E050E00E94904B49
:10129000C20ED31EE41EF51E0E94F1064B015C0136
:1012A000F30182859385DC01ED91FC910084F18549
:1012B000E02D1995EC0180179107BCF40E94F1060E
:1012C000681979098A099B096C157D058E059F05AA
:1012D00060F4F30182859385DC01ED91FC91068831
:1012E000F789E02D19958111DBCF209741F484E730
:1012F00090E090934B1680934A16CFEFDFEFCE012C
:10130000DF91CF911F910F91FF90EF90DF90CF90E1
:10131000BF90AF909F908F907F906F900895CF93E4
:10132000DF93DC015A96CD91DC918A859B85DC01A7
:10133000ED91FC910084F185E02D1995892B51F0F8
:101340008A859B85DC01ED91FC910284F385E02D7B
:101350001995EBCF90E080E0DF91CF910895DC010B
:101360005A96ED91FC9182859385DC01ED91FC917B
:101370000488F589E02D1994EF92FF920F931F9343
:10138000CF93DF9300D000D0CDB7DEB7FC01A28DA4
:10139000B38D1A968D919C911B97FC012081318110
:1013A000F901E684F78412964D915C9113972CE134
:1013B00033E03A83298316960D911D912D913C912E
:1013C00019970B831C832D833E83BE016F5F7F4F74
:1013D000F701199521E030E0892B11F030E020E091
:1013E00088279927821B930B26960FB6F894DEBFA9
:1013F0000FBECDBFDF91CF911F910F91FF90EF9066
:101400000895FA01DB019C918081981305C0119623
:101410009C918181981749F08FEE9BE290934B1637
:1014200080934A168FEF9FEF08958281882319F0E9
:1014300083818111F1CF90E080E00895CA01089581
:10144000DC015A96ED91FC9182859385DC01ED914A
:10145000FC910288F389E02D1995BC01990F880B46
:10146000990B0895DC015A96ED91FC918285938544
:10147000DC01ED91FC910280F381E02D1995BC0116
:1014800090E080E008959B0126503109FC013483EF
:101490002583CB010895FC01208130E0322F2227E3
:1014A0008181820F932F911D0895DC01FB01159618
:1014B0008C911597808314968C9114978183128256
:1014C00013828C91868312968C91878388E090E0BA
:1014D00008950F931F93CF93DF93F801EC01AA8D2A
:1014E000BB8DCD91DC911197CF3FDC07D9F02196D0
:1014F0001196DC93CE9311967C91119770837C9119
:10150000718312821382DC018C91868367835087FA
:101510004187328723878CE090E0DF91CF911F9144
:101520000F91089511961C921E92E5CF683F7105A8
:1015300030F4FC017183608390E080E008956F3F98
:101540007105B9F386E190E090934B1680934A16AB
:101550008FEF9FEF08956F927F928F929F92AF923D
:10156000BF92CF92DF92EF92FF920F931F93CF9390
:10157000DF93FA018901DC015A966D907C90C12CB1
:10158000D12C76013097C1F0208131814281538185
:10159000A8EEB3E00E94854B6B017C0164817581EC
:1015A0008681978128EE33E040E050E00E94904B26
:1015B000C20ED31EE41EF51E0E94F1064B015C0113
:1015C000F30186819781DC01ED91FC910084F18526
:1015D000E02D1995EC01801791075CF40E94F1064B
:1015E000681979098A099B096C157D058E059F0587
:1015F00038F3209741F484E790E090934B16809362
:101600004A16CFEFDFEFCE01DF91CF911F910F91FF
:10161000FF90EF90DF90CF90BF90AF909F908F9012
:101620007F906F900895CF93DF93DC015A96CD9110
:10163000DC918E819F81DC01ED91FC910084F1852C
:10164000E02D1995892B51F08E819F81DC01ED9160
:10165000FC910284F385E02D1995EBCF90E080E0BA
:10166000DF91CF910895CF93DF93DC015A96CD910E
:10167000DC91EE81FF818289938997FD03C061E04F
:101680000E94DC058E819F81DC01ED91FC91028836
:10169000F389E02DDF91CF911994CF93DF93DC0193
:1016A0005A96CD91DC918E819F812C813D8148811C
:1016B00059816A817B81DC01ED91FC910088F1897F
:1016C000E02D1995EE81FF818289938997FD03C0F2
:1016D00060E00E94DC0590E080E0DF91CF9108950A
:1016E000FB018081FA019081891759F0882349F024
:1016F00083EF9BE290934B1680934A168FEF9FEFF8
:10170000089590E080E008958F929F92AF92BF92EB
:10171000CF92DF92EF92FF920F931F93CF93DF93BD
:101720006A01DC015A96ED91FC91068117817B01DB
:10173000D0E0C0E0CC15DD0528F50E94F106F801E7
:101740006087718782879387D801ED91FC9102842D
:10175000F385E02DC801199597FF24C00E94F1067A
:10176000F80180849184A284B384681979098A0974
:101770009B0984809580A680B780681579058A05C5
:101780009B0510F3BE0190E080E0DF91CF911F91A7
:101790000F91FF90EF90DF90CF90BF90AF909F9010
:1017A0008F900895D7018D937D012196C3CFCF925D
:1017B000DF92EF92FF920F931F93CF93DF937B0102
:1017C0006A01DC015A96CD91DC91EE81FF8182891C
:1017D000938997FD03C061E00E94DC050E811F81A3
:1017E000F8018089918997FD07C061E00E94DC05BE
:1017F00083EC90E00197F1F781E0D80154968C9347
:101800008E819F81DC01ED91FC910280F381E02DBE
:10181000A601B70119956C01F12CE12C0E811F81F5
:10182000F80184859585DC01ED91FC910680F781B6
:10183000E02D1995F8018089918997FD07C0E3ECA7
:10184000F0E03197F1F760E00E94DC05D801549692
:101850001C92EE81FF818289938997FD03C060E02D
:101860000E94DC05C701B601DF91CF911F910F9156
:10187000FF90EF90DF90CF900895FB0180819181E0
:1018800002979183808390E080E00895DC01680FE7
:10189000791F8FEF9FEFA617B70769F02D912927C2
:1018A00030E0F901EC5DFA4F94919827F901EC5D75
:1018B000FB4F8491F0CF0895EF92FF920F931F9307
:1018C000CF93DF937C01EB018A01888190E0F701DF
:1018D000208131812817390711F0892B51F5B80182
:1018E00062507109CE010E94460CC00FD11FFE014B
:1018F0003297208121973881232732272327821787
:10190000930779F0F701868182FF03C0C7010E9427
:10191000130B8EEE9BE290934B1680934A160FEFBB
:101920001FEFC801DF91CF911F910F91FF90EF90B2
:10193000089510E000E0F5CF0F931F93CF93DF934E
:10194000EC018B010E94460CC00FD11F9883898344
:10195000C8010296DF91CF911F910F910895FC016C
:101960002081FB012083FC018281FB01818382E0D5
:1019700090E00895683F710530F4FC017183608345
:1019800090E080E0089586E190E090934B1680937C
:101990004A168FEF9FEF0895009741F0DC015896AB
:1019A000ED91FC9104A0F5A1E02D19940895009704
:1019B00041F0DC015896ED91FC91068CF78DE02DFD
:1019C00019940895009741F0DC015896ED91FC912F
:1019D000048CF58DE02D199486E190E090934B16E0
:1019E00080934A168FEF9FEF0895009741F0DC0136
:1019F0005896ED91FC910084F185E02D199486E1D3
:101A000090E090934B1680934A168FEF9FEF0895C6
:101A1000009741F0DC015896ED91FC9100A0F1A1F6
:101A2000E02D199486E190E090934B1680934A162E
:101A30008FEF9FEF0895CF93DF93EC0128853985D1
:101A40004A855B85A8EEB3E00E94854B0E94BE06E6
:101A50006C857D858E859F85DF91CF910C941604D2
:101A60002F923F924F925F926F927F928F929F92AE
:101A7000AF92BF92CF92DF92EF92FF920F931F939C
:101A8000CF93DF9300D000D000D01F92CDB7DEB748
:101A90007C013B012A01DC015896ED91FC9159979C
:101AA000028113810F5F1F4F312C212C452BB1F088
:101AB00018968D919D910D90BC91A02D89839A834C
:101AC000AB83BC83F70184859585A685B7858D8317
:101AD0009E83AF83B887CE0101961C01D12CC12C07
:101AE000912C812CD7015896ED91FC91011511058F
:101AF00049F4008CF18DE02DA401B301C7011995C3
:101B00005C0129C002A0F3A1E02D9801A101BE0152
:101B1000675F7F4FC70119955C01D7019FEFA91639
:101B2000B906F1F516968C9181FD04C0AA24AA94F9
:101B3000BA2C11C000914A1610914B1604371105AA
:101B400021F5C7010E941B0DC7010E94080D1093CB
:101B50004B1600934A16C5012A960FB6F894DEBFBD
:101B60000FBECDBFDF91CF911F910F91FF90EF90EE
:101B7000DF90CF90BF90AF909F908F907F906F90AD
:101B80005F904F903F902F900895023FBDE21B075A
:101B9000F1F6C7010E94D70CC7010E94E20CD7CF13
:101BA0005896ED91FC910688F789E02DA801B301C4
:101BB000680D791DC70119956115710509F582EF49
:101BC0009DE290934B1680934A16F701868181FF20
:101BD000ADCF00914A1610914B16023FFDE21F0750
:101BE00021F00F36110509F0A1CFC7010E94D70CD3
:101BF000C7010E94E20C10934B1600934A1696CF31
:101C00006F3F760711F3860E971E061B170B09F020
:101C100099C0D7015896ED91FC91C114D10441F0BF
:101C2000CA94CD2809F457C082E0C82ED12C5ACFCF
:101C3000A281B381A60DB71D8C9141145104B9F452
:101C400090E087309105D4F09C012F50310922306B
:101C5000310508F47CC08631910509F47EC04797B0
:101C6000D1F5CC24C394D12C09E010E015C081310A
:101C700058F48F3018F48550823048F4CC24C39443
:101C8000D12C04E010E008C0863109F466C0CC24F1
:101C9000C394D12C01E010E0F70140895189628999
:101CA000738984899589A689B7894115510561058C
:101CB000710529F40097A105B10509F413CF4983F3
:101CC0005A836B837C838D839E83AF83B887CE01D9
:101CD00001961C0107CFA281B381A60DB71D8C917F
:101CE0004114510401F58F3020F08131A8F0873183
:101CF000B9F084819581080F191F9401200F311FBD
:101D00008681978182179307D4F48FEE9BE290939C
:101D10004B1680934A160ACF15960C9110E0E9CF26
:101D200019960C91FBCF90E0853091052CF0813114
:101D3000910511F04797E9F611960C91EFCF52E01B
:101D4000C52ED12C101611060CF4A6CFCBCECC2468
:101D5000C394D12C05E010E09FCFCC24C394D12CA8
:101D600006E010E099CF50E040E00C94300DCF93A6
:101D7000DF93FC01C28DD38D28853985232B59F043
:101D800041E050E00E94300D1986188690E080E016
:101D9000DF91CF91089550E040E00E94300D009710
:101DA000B9F721E030E039872887F2CFAF92BF92B0
:101DB000CF92DF92EF92FF920F931F93CF93DF9317
:101DC000EC017B01E88DF98D0088F189E02DBA01E5
:101DD000C70119958C01E88DF98D0288F389E02DF2
:101DE000A801B701CE0119956B018FEFC816D8066F
:101DF000C9F48E8181FF16C0A0904A16B0904B1690
:101E000082EFA8168DE2B80679F5CE010E94D70CB4
:101E1000CE010E941B0DCE010E94E20CB0924B1627
:101E2000A0924A168E8181FF04C08FEFC816D80693
:101E300091F21C141D0464F40C151D0549F08FEE7D
:101E40009BE290934B1680934A16CC24CA94DC2CC8
:101E5000C601DF91CF911F910F91FF90EF90DF901E
:101E6000CF90BF90AF900895CE010E941B0DCE0180
:101E70000E94080DD3CF5F926F927F928F929F92B4
:101E8000AF92BF92CF92DF92EF92FF920F931F9388
:101E9000CF93DF93CDB7DEB7C051D1400FB6F894E2
:101EA000DEBF0FBECDBF6C01622E532EDC015896F3
:101EB000ED91FC910284F385E02D8E010B5F1E4FA6
:101EC00022E130E01995AC01B801C6010E94D60E9E
:101ED0007C0118161906D4F541E050E0BE016F5F91
:101EE0007F4FC6010E94300D5C018F3F980721F49F
:101EF000EE24EA94FE2C2AC0D6015896ED91FC916E
:101F00000281138188248394912C8C0E9D1E800E57
:101F1000911ED4017C90028CF38DE02D309771F1ED
:101F20009C01AE014F5F5F4FBE016B5F7E4FC601EC
:101F300019957C01019611F5F601868182FFD8CFB3
:101F4000C6010E941B0DC6010E94080DC701C05F9B
:101F5000DE4F0FB6F894DEBF0FBECDBFDF91CF913D
:101F60001F910F91FF90EF90DF90CF90BF90AF90B7
:101F70009F908F907F906F905F900895F601A08D55
:101F8000B18D12964D915C911397E5E0F1E0EC0F65
:101F9000FD1FE40FF51FE081E150E73108F08BC031
:101FA000F0E08827E952F04F8F4F0C94C14B23107B
:101FB0002310471047105B105B10EE0F5B105B1097
:101FC0005B105B105B105B105B105B105B106110B3
:101FD0005B105B105B105B105E10471083E090E0BD
:101FE000840F951F14966D917C911597860F971FFE
:101FF00077FE6DC014968D919C91800F911F029673
:10200000A816B90609F060C0E5E0F1E0EC0FFD1F8D
:10201000E00FF11F2081D4018C918058990B281773
:10202000190609F051C0FE01E00FF11F828190E016
:102030008C3091050CF048C08E51944D90934B1606
:1020400080934A1655CFE8E0F1E0EC0FFD1FE40F56
:10205000F51F2081E9E0F1E0EC0FFD1FE40FF51F13
:102060008081322F282FC90137FD079663E09595AF
:1020700087956A95E1F702962770332761E070E053
:10208000232B11F470E060E0860F971FA9CFE8E0E2
:10209000F1E0EC0FFD1FE40FF51F8081E9E0F1E0B6
:1020A000EC0FFD1FE40FF51F6081982F862F01961E
:1020B000880F991F95CF85E090E092CF87E090E060
:1020C0008FCF8FEF9FEF94CF80EF9BE2B7CFA81613
:1020D000B90611F0019649F4E5E0F1E0EC0FFD1FBF
:1020E000E00FF11F8081781669F0F601868182FF8A
:1020F00006C0C6010E941B0DC6010E94080D8FEE8E
:102100009BE29CCFEFEFE70DE73108F0B6C0F0E0BF
:102110008827E257FF4E8F4F0C94C14BA510A51096
:10212000D910D9103D113D113D113D113D113D1109
:102130003D113D113D113D11F210F21019113D11EB
:102140003D113D113D113D11D910E8E0F1E0EC0FDA
:10215000FD1FE00FF11F2081822F90E0982F88272C
:10216000E9E0F1E0EC0FFD1FE00FF11F2081280FE7
:10217000392F311DC90137FD0796E3E09595879505
:10218000EA95E1F72770332761E070E0232B11F423
:1021900070E060E0860F971FFE01E00FF11FE28004
:1021A000F12C8E159F0509F46EC0D60116968C9100
:1021B0009ECFE8E0F1E0EC0FFD1FE00FF11F808102
:1021C00090E0982F8827E9E0F1E0EC0FFD1FE00F89
:1021D000F11F2081820F911DFE01E00FF11FE280AF
:1021E000E694DECF98012D5F3F4F0C5F1F4FE5E077
:1021F000F1E0EC0FFD1FE20FF31F808190E0982FBC
:102200008827E5E0F1E0EC0FFD1FE00FF11F608192
:10221000860F911D61E070E06C0F7D1F260F371F48
:10222000D901EC90060F171FF8012081FE2CE22E39
:10223000B8CFFE01E00FF11FE280F12CE62DF52D65
:1022400090E080E021E030E02C0F3D1F420F531F53
:102250008E159F050CF07ACEDC01AA0FBB1FA40FD0
:10226000B51F12962C91129713963C912327322773
:102270002327219331930196EBCFEE24E394F12CA5
:1022800081E090E08ECFFFEFEF16FF06B9F630CE7B
:1022900081E00895FC018489882349F0848595852F
:1022A000DC01ED91FC910190F081E02D199481E029
:1022B00090E09383828390E080E00895DC011C9697
:1022C0008D919C91DC01ED91FC910680F781E02DD0
:1022D0001994DC011C968D919C91DC01ED91FC918F
:1022E0000284F385E02D1994DC011C968D919C915C
:1022F000DC01ED91FC910484F585E02D1994DC015D
:102300001C968D919C91DC01ED91FC910084F185EE
:10231000E02D19940F931F93CF93DF938C01FC0151
:10232000C485D585E881F9810680F781E02DCE014D
:102330001995EA89FB8980818F7E8083EA89FB89F0
:102340008081877F8083EA89FB8980818F77808382
:10235000EA89FB8980818F7D80838A8D898FF8014E
:102360008289938997FD08C060E00E94DC0560E0E7
:10237000F80180890E946806F8018089918997FD9B
:102380000CC060E00E94DC0560E0F8018289DF910A
:10239000CF911F910F910C946806DF91CF911F91FF
:1023A0000F910895CF92DF92EF92FF921F93CF93F8
:1023B000DF93EC016A017B01122FCD8ADE8AEF8A5E
:1023C000F88E298F3A8F8889998997FD07C061E037
:1023D0000E94680660E088890E94DC058A899B89E2
:1023E00097FD07C061E00E94680661E08A890E944B
:1023F000DC051C8A212FB701A6018C859D85DF9104
:10240000CF911F91FF90EF90DF90CF900C94C2047A
:10241000DC01ED91FC910088F189E02D26E030E0AF
:102420001994089590E080E00895AF92BF92CF9202
:10243000DF92EF92FF920F931F93CF93DF9300D021
:102440001F92CDB7DEB78C016B017A0180917310BA
:102450008333E9F45B016801C40ED51EC016D106B2
:10246000A9F10E9421078FE00E942C07812F0E9472
:102470002C07802F0E942C070F5F1F4F80E00E94C7
:102480002C07F50181935F010E941707E7CF843382
:1024900069F50E94210719830A838F2D8F778B831B
:1024A000EC8264E070E0CE0101960E94FD06A70177
:1024B00070E060E0C6010E94DD4DE114F10421F0FE
:1024C000B701C6010E94FD060E941707C7010F90C1
:1024D0000F900F900F90DF91CF911F910F91FF9070
:1024E000EF90DF90CF90BF90AF9008950E942107AA
:1024F0000F3F110509F030F419820A831B8263E053
:1025000070E0D1CF17FD0BC019820A8333E0169516
:1025100007953A95E1F7007E08600B83F0CFC8017C
:1025200026E0969587952A95E1F7807E19830A83A0
:102530000115104C18F480618B83E1CF8861FCCFCA
:102540001F93CF93DF931F92CDB7DEB7182F80E58F
:1025500091E00E940E04812F0E94F40727E0129F51
:10256000F0011124E55DFF4E22813381377041E097
:1025700050E0BE016F5F7F4F820F931F0E941512C4
:1025800089810F90DF91CF911F910895FC01808D7B
:10259000883040F4218D328D232B21F00E94A0122F
:1025A00090E008958FEF9FEF0895CF93DF93FC01A4
:1025B0002485283028F08FEF9FEFDF91CF91089589
:1025C000EC010190F081E02D0084F185E02D19955A
:1025D000892B89F38C850E94A01290E0EECFCF93D7
:1025E000DF931F92CDB7DEB741E050E0BE016F5FD1
:1025F0007F4F0E94151289810F90DF91CF9108952E
:1026000090E080E00C94EF12CF93DF93C4E1D0E030
:102610000E940013882361F061E070E080E090E0A8
:102620000E94BE062197A1F780E0DF91CF91089527
:1026300081E0FBCF1F93CF93DF931F921F92CDB703
:10264000DEB760E372E080E090E00E94BE061FB754
:10265000F8948091BE0A811127C0EDE8F6E08491DC
:10266000E3EDF6E09491E82FF0E0EE0FFF1FEC5D54
:10267000F94FA591B491EC91E92321F461E085E350
:102680000E94DC0561E085E30E9468068CB58061EC
:102690008CBD8CB580648CBD61E084E30E946806CB
:1026A00061E083E30E9468068091BE0A8F5F809399
:1026B000BE0A1FBF80910002282F30E0F901E85ABE
:1026C000F94FE491F0E0EE0FFF1FE25CF94F459106
:1026D00054915093BD0A4093BC0AF901E256F94F58
:1026E000E491E093BB0A61E00E9468060E9417072C
:1026F00080E591E00E940E0484E38093731080E8EB
:102700000E94E1070E940413882391F188E00E944F
:10271000E1070E940013883059F580E10E94E1072B
:102720000E940013803121F580E00E94E1070E94A1
:102730000013182F81111CC08FE190E00E94EF124E
:102740008330B1F480E48093BF0A42E06EE170E030
:10275000812F0E943F0842E06FE170E0812F0E94CC
:102760003F081F5F183089F781E08093741064C0C0
:1027700087E38093731080E80E94E1070E940413AE
:102780008823F9F088E00E94E1070E940013883056
:10279000C1F480E10E94E1070E940013182F8031EC
:1027A00081F480E00E94E1070E940013811109C0BA
:1027B00089E390E00E94EF12843019F41093BF0A6D
:1027C000D3CF83E38093731080E80E94E1070E94D7
:1027D0000413882371F180E10E94E1070E94001335
:1027E000803139F582E10E94E1070E9400138231B5
:1027F00001F580E00E94E1070E940013811119C0D9
:1028000084E08093BF0A15E51A8341E050E0BE01E1
:102810006E5F7F4F8BE190E00E943307198341E0A8
:1028200050E0BE016F5F7F4F8AE190E00E94330766
:102830009BCF1092731080E00F900F90DF91CF919B
:102840001F910895CF92DF92EF92FF92CF93DF9383
:10285000CDB7DEB7C254D1090FB6F894DEBF0FBEB4
:10286000CDBFFC01428153816481758123964CAFB9
:102870005DAF6EAF7FAF239781E023968FAF239735
:102880002396CCACDDACEEACFFAC2397CBAADCAA94
:10289000EDAAFEAA4DA75EA76FA778AB88ABCDA423
:1028A000DEA4EFA4F8A8CFA2D8A6E9A6FAA68EAB1C
:1028B000CBA8DCA8EDA8FEA8C9A2DAA2EBA2FCA2D4
:1028C0002CE133E03C8B2B8B9FEF9D8B9E8B9F8B62
:1028D000188E3E872D878AA7CFA0D8A4E9A4FAA492
:1028E000CF86D88AE98AFA8A8CA389A19AA1ABA15A
:1028F000BCA189879A87AB87BC873A8329834B839E
:102900005C836D837E8380917410882309F443C0B7
:1029100080E591E00E940E0446E050E063E072E042
:1029200089E090E00E94330744E050E0BE016D5F13
:102930007F4F8FE090E00E94330744E050E0BE01FB
:10294000615F7F4F81E090E00E94330744E050E0F8
:10295000BE016B5E7F4F85E090E00E94330781E00F
:102960008C8789859A85AB85BC858093321190933D
:102970003311A0933411B0933511CE5BDF4F0FB6F6
:10298000F894DEBF0FBECDBFDF91CF91FF90EF90E7
:10299000DF90CF9008950E941A13882371F3B8CF67
:1029A0002091BF0A30E0322F2227620F731F90E080
:1029B000982F8827860F971F0C94EF12CF93C82F5C
:1029C000462F61E070E00E943F0861E070E08C2FCC
:1029D0000E94D0148111F9CFCF910895CF93C82FC1
:1029E00080E591E00E940E0468E070E08C2FCF91AA
:1029F0000C94DE14CF93C82F80E591E00E940E0462
:102A000060E170E08C2FCF910C94DE14CF93DF93B4
:102A1000EC01888D883020F40E94FA1488E0888FB9
:102A2000DF91CF91089563E070E00C94D014CF93C0
:102A3000C82F80E591E00E940E048C2FCF910C945A
:102A40001315EF92FF920F931F93CF93DF937C01A7
:102A500080917310D4E0833309F0D8E003E610E1ED
:102A6000C0E0F801219131918F01F70184819581B6
:102A70002817390729F0CF5FDC13F3CF80E006C0B9
:102A80008C2F0E9417158431B1F781E0DF91CF912F
:102A90001F910F91FF90EF900895CF93DF93EC017A
:102AA0008C858830D0F40E941715843189F08823F2
:102AB00079F0883169F021E08C3159F4E881F981AD
:102AC0000084F185E02DCE01199521E0892B09F4D0
:102AD00020E0822FDF91CF91089580E0FBCFCF924D
:102AE000DF92EF92FF92CF93DF93EC018C858830D9
:102AF00068F40E94EE140E94F1066B017C018C8543
:102B00000E941715811109C088E08C87DF91CF9151
:102B1000FF90EF90DF90CF90089561E070E080E04B
:102B200090E00E94BE060E94F106AB01BC014C1968
:102B30005D096E097F098D859E85B0E0A0E048178C
:102B400059076A077B07D8F28C850E94FA14DCCFFC
:102B5000CF93FC01C08D80E591E00E940E0460E2FD
:102B600070E08C2F0E94DE1462E070E08C2F0E94D7
:102B7000D01484FD16C062E070E08C2F0E94D01447
:102B800083FF0AC048E162E070E08C2F0E943F089A
:102B900080E090E0CF91089580E591E00E940E04DE
:102BA000E3CF40E162E070E08C2F0E943F0881E0BB
:102BB000F0CFDA01E091BF0AF0E0FE2FEE27E60F3A
:102BC000F71F90E0982F8827A901BD018E0F9F1F46
:102BD0000C9415128F929F92AF92BF92CF92DF9278
:102BE000EF92FF920F931F93CF93DF93CDB7DEB792
:102BF00060970FB6F894DEBF0FBECDBF7C019091F9
:102C00007310911115C018E0812F60960FB6F894DB
:102C1000DEBF0FBECDBFDF91CF911F910F91FF900F
:102C2000EF90DF90CF90BF90AF909F908F900895DE
:102C300008E0933309F404E06B0180E591E00E9421
:102C40000E049E012F5F3F4F5901490110E0812F73
:102C50000E941315F40181934F018823C1F01F5F77
:102C60000113F5CF00E0F50181915F018D3149F04D
:102C7000883139F08A51823020F00F5F1013F3CF82
:102C8000C2CF60E170E0802F0E94DE14102FA12ED1
:102C9000B12CF501EE0FFF1FED59FF4E118210828E
:102CA00083EE93E00197F1F742E870E060E0812F56
:102CB0000E943F084FEF62E070E0812F0E943F08C2
:102CC000B601C114D10491F48091010290910202E5
:102CD00001968115F0EC9F0708F45CC09093020206
:102CE000809301026091010270910202812F0E9483
:102CF000290886E0EFE0F2E0DE01199601900D92DE
:102D00008A95E1F7F70183818F778C8784818D879E
:102D100085818E87A7014E5F5F4F24E030E06CE035
:102D200070E0812F0E940208B601812F0E941308D3
:102D300026E030E0AE01475F5F4F66E070E0812F34
:102D40000E94020861E070E0812F0E94DE1427E0FB
:102D50002A9DC0012B9D900D11249C01255D3F4EA5
:102D60007901F9011182108222E030E0AE01415F69
:102D70005F4F68E270E0812F0E94D9158F85988996
:102D8000982789279827F7019383828316821582D3
:102D900014823ACF80E090ECA1CFCF92DF92EF92F5
:102DA000FF920F931F93CF93DF9300D000D0CDB746
:102DB000DEB78C016B017A01FC01808D883010F444
:102DC0000E94FA148CE193E09A838983F601828150
:102DD0009381A481B5818B839C83AD83BE83B7012E
:102DE000CE0101960E94EA15F801808F8830A0F488
:102DF000F586E486128E118E81E026960FB6F89441
:102E0000DEBF0FBECDBFDF91CF911F910F91FF901D
:102E1000EF90DF90CF90089580E0EFCF7F928F9278
:102E20009F92AF92BF92CF92DF92EF92FF920F9359
:102E30001F93CF93DF931F921F92CDB7DEB7782EEB
:102E40008B014A01590122E030E0AE014F5F5F4F34
:102E500064E270E00E94D915E980FA80FE24EF2434
:102E6000FE24E00EF11E9701377040917310072D7C
:102E700010E0433309F042C0085F1F4F102F0027B6
:102E8000110F110F110FC901800F911F4733C9F1A5
:102E9000A9014A0D5B1D4130584098F160E078E08F
:102EA0006B01C21AD30AA601B4010E943307A5011F
:102EB0004C195D09B4016C0D7D1DC8010E943307DA
:102EC000EA0CFB1CF982EA8222E030E0AE014F5F9F
:102ED0005F4F64E270E0872D0E9402080F900F9010
:102EE000DF91CF911F910F91FF90EF90DF90CF90E6
:102EF000BF90AF909F908F907F900895005F1F4F7D
:102F0000BDCFA501B401DACFEF92FF921F93CF930B
:102F1000DF931F921F92CDB7DEB7182F22E030E06B
:102F2000AE014F5F5F4F60E270E00E94D915E9800B
:102F3000FA80FE24EF24FE2422E030E0AE014F5F51
:102F40005F4F60E270E0812F0E94D91589819A81DC
:102F5000982789279827E816F90689F487E0189FAB
:102F6000F0011124E55DFF4EF582E482C7010F9068
:102F70000F90DF91CF911F91FF90EF9008957C010A
:102F8000DBCF1F93CF93DF93182F80E591E00E9452
:102F90000E04812F0E948417EC01812F0E941315CB
:102FA000873121F08C3111F0D0E0C0E0CE01DF910B
:102FB000CF911F910895CF93DF93EC018C858830DA
:102FC00060F40E941715873111F08C3131F48C8533
:102FD0000E94C1178115984088F3DF91CF91089521
:102FE000FC018485883010F40C94C11790E080E0D7
:102FF0000895CF92DF92EF92FF921F93CF93DF93CA
:10300000182F7B01EA014130584010F0C0E0D8E0B1
:1030100080E591E00E940E04812F0E9484176C01CC
:10302000812F0E941315873111F08C3121F5CC16B8
:10303000DD0670F380E591E00E940E049E01A70179
:1030400070E060E0812F0E940E1760E270E0812F37
:103050000E94DE1462E070E0812F0E94D01484FD93
:103060000DC0812F0E9413158823B9F080E591E0EF
:103070000E940E04EFCFD0E0C0E0DCCF40E162E080
:1030800070E0812F0E943F08CE01DF91CF911F9108
:10309000FF90EF90DF90CF900895D0E0C0E0F4CFA4
:1030A0000F931F93CF93DF938C01EA01FC0184857A
:1030B000883048F40E94F917892B39F481E090E0B8
:1030C000F80193838283D0E0C0E0CE01DF91CF91FD
:1030D0001F910F9108959F92AF92BF92CF92DF926E
:1030E000EF92FF920F931F93CF93DF938C015B01BD
:1030F000942EE52EFC01C688D788F08C80E591E0FF
:103100000E940E048F2D0E948417C92DDE2D8C176E
:103110009D0708F4EC019E01A501B6018F2D0E94C8
:103120000E17F801868997898C0F9D1F978B868BC8
:10313000CE01DF91CF911F910F91FF90EF90DF9023
:10314000CF90BF90AF909F900895FF920F931F93E1
:10315000CF93DF931F921F92CDB7DEB7F82E22E0F8
:1031600030E0AE014F5F5F4F66E270E00E94D9151C
:1031700009811A8110270127102722E030E0AE01D3
:103180004F5F5F4F66E270E08F2D0E94D9158981F5
:103190009A819827892798270817190749F4C801A1
:1031A0000F900F90DF91CF911F910F91FF90089595
:1031B0008C01E3CF1F93CF93DF93182F87E0189FE5
:1031C000E0011124C55DDF4E88819981009761F48B
:1031D00080E591E00E940E04812F0E94A5182E81A7
:1031E000821B910999838883DF91CF911F91089564
:1031F0009F92AF92BF92CF92DF92EF92FF920F9386
:103200001F93CF93DF93EC017B01809173108111A9
:1032100021C01B821A8288EE93E0A0E0B0E08C838C
:103220009D83AE83BF8389E192E09983888388E0A0
:103230008C8788EE93E09E878D87CE01DF91CF91BA
:103240001F910F91FF90EF90DF90CF90BF90AF90C4
:103250009F90089534E0932E833311F028E0922E4E
:1032600083E6C82E80E1D82E10E098E0B92EA12C7C
:10327000D6012D913D916D01F7018481958128172B
:10328000390791F4812F0E941715082F873111F00B
:103290008C3139F5812F0E94DA18892B59F50C31C0
:1032A00019F4812F0E94EE141F5F9112E1CFA1103B
:1032B00008C0D701ED91FC910084F185E02DC70194
:1032C00019951B821A8288EE93E0A0E0B0E08C830F
:1032D0009D83AE83BF8389E192E099838883BC8616
:1032E000A8CF843149F08111DFCFF60132971182E6
:1032F0001082DACFB12ED8CFAA24A394D5CF8F9243
:103300009F92AF92BF92CF92DF92EF92FF920F9374
:103310001F93CF93DF93CDB7DEB72F970FB6F894F7
:10332000DEBF0FBECDBF5C014B017A0180917310EF
:103330008823C9F104E0833309F008E0B501CE0128
:1033400001960E94F81883E6C82E80E1D82E10E07E
:10335000F601219131916F01F50184819581281742
:10336000390751F4812F0E941715873129F4A701DD
:10337000B401812F0E94F9171F5F0113E9CFC70124
:103380002F960FB6F894DEBF0FBECDBFDF91CF9161
:103390001F910F91FF90EF90DF90CF90BF90AF9073
:1033A0009F908F900895F12CE12CE9CFFC0184854A
:1033B000883010F40C94DA1890E080E008954F9271
:1033C0005F927F928F929F92AF92BF92CF92DF9245
:1033D000EF92FF920F931F93CF93DF931F921F9251
:1033E000CDB7DEB7782E6B014A01A82EB12C27E0AD
:1033F000829FC0011124FC01E55DFF4E7F01008129
:10340000118180E591E00E940E040815190554F41D
:10341000872D0E94A518F70126818C01021B110936
:10342000118300830115110519F5872D0E941315CD
:10343000843159F0882349F001E010E08C3111F417
:1034400010E000E0119501951109C8010F900F904F
:10345000DF91CF911F910F91FF90EF90DF90CF9070
:10346000BF90AF909F908F907F905F904F90089506
:10347000801691060CF4840187E08A9DF0018B9DF3
:10348000F00D1124E55DFF4EE280F380C114D104FC
:1034900051F12701F7E05F22872D0E94F407840D88
:1034A000951D20917310273309F453C09801240D02
:1034B000351D2130384008F44CC020E038E0490187
:1034C00084189508A401B6010E9415122601480C23
:1034D000591C6801C818D908872D0E94F407A60155
:1034E000B2010E941512E00EF11E87E08A9DF001E4
:1034F0008B9DF00D1124E55DFF4EF382E282208169
:103500003181201B310B318320838681800F912FE5
:10351000911D8A3F910510F4232BF1F487E08A9DD9
:10352000F0018B9DF00D1124E55DFF4E1682F982AE
:10353000EA8222E030E0AE014F5F5F4F68E270E068
:10354000872D0E94020860E470E0872D0E94DE143F
:103550007CCFA801B601C5CF868377CFCF93DF9309
:10356000FC01218D328D2115310529F48FEF9FEF5C
:10357000DF91CF910895EC01808D4217530708F039
:10358000A9010E94DF191816190684F7298D3A8DB2
:10359000281B390B3A8F298FEBCF0F931F93CF93B3
:1035A000DF931F92CDB7DEB7FC01218D328D232B27
:1035B00041F48FEF9FEF0F90DF91CF911F910F910B
:1035C00008958C0141E050E0BE016F5F7F4FFC0128
:1035D000808D0E94DF19181619065CF7F801818D9D
:1035E000928D0197928F818F898190E0E4CFCF9364
:1035F000DF931F92CDB7DEB741E050E0BE016F5FB1
:103600007F4FFC0184850E94DF191816190634F4D7
:10361000898190E00F90DF91CF9108958FEF9FEF18
:10362000F9CFFC018485883010F40C94DF1990E008
:1036300080E008958F929F92AF92BF92CF92DF92D7
:10364000EF92FF920F931F93CF93DF9300D000D0A0
:1036500000D01F92CDB7DEB790917310911115C0B5
:1036600018E0812F2A960FB6F894DEBF0FBECDBFAB
:10367000DF91CF911F910F91FF90EF90DF90CF904E
:10368000BF90AF909F908F90089528E0F22E9333D3
:1036900011F494E0F92E6B01082F80E591E00E946F
:1036A0000E049E012F5F3F4F5901490110E0812F09
:1036B0000E941315F40181934F018823C1F01F5F0D
:1036C000F112F5CFF12CF50191915F019D3149F097
:1036D000983139F09A51923020F0F3941F11F3CFC2
:1036E000BFCF60E170E08F2D0E94DE141F2DE12E10
:1036F000F12CF701EE0FFF1FED59FF4E11821082E2
:1037000083EE93E00197F1F7402F70E060E0812FA6
:103710000E943F084FEF62E070E0812F0E943F0857
:10372000B601CD2889F480910102909102020196A0
:103730008115F0EC9F0798F19093020280930102AB
:103740006091010270910202812F0E94290861E0BC
:1037500070E0812F0E94DE1427E02E9DC0012F9D76
:10376000900D11249C01255D3F4E7901F9011182D4
:10377000108222E030E0AE01475F5F4F68E270E008
:10378000812F0E94D91589859A859827892798279E
:10379000F7019383828316821582148262CF80E0C0
:1037A00090ECCACF0F931F93CF93DF93EC018B0163
:1037B000888D883010F40E94FA14B80182E00E94CB
:1037C0001A1B888F883050F41D870C871A8E198E2B
:1037D00081E0DF91CF911F910F91089580E0F9CFA3
:1037E0000F931F93CF938C01FC016481758181E25B
:1037F0000E941A1BC82F8830F8F480E591E00E94DF
:103800000E048C2F0E941315833131F08C2FCF9131
:103810001F910F910C94EE1462E070E08C2F0E94C7
:10382000DE14F80184819581EC2FF0E0EE0FFF1F8C
:10383000ED59FF4E91838083CF911F910F91089591
:10384000CF92DF92EF92FF921F93CF93DF93EC0121
:103850007B016A018C85883048F40E941715882303
:1038600019F08C850E94EE1488E08C87F701828124
:103870009381A481B5810097A105B10551F490E031
:1038800080E0DF91CF911F91FF90EF90DF90CF907C
:1038900008958F3F9F4FAF4FBF4F89F370E060E0B7
:1038A00081E20E941A1B182F8C87883040F780E530
:1038B00091E00E940E04A7014E5F5F4F24E030E0CC
:1038C0006CE070E0812F0E940208B601812F0E94F7
:1038D000130864E070E0812F0E94DE140E94F1065C
:1038E0006B017C018C850E941715873111F18C3199
:1038F00001F1882321F20E94F106AB01BC014C19B1
:103900005D096E097F098D859E85B0E0A0E0841772
:103910009507A607B70738F061E070E080E090E017
:103920000E94BE06DFCF8C850E94FA1488E08C8747
:10393000A6CF81E090E0A5CF0F931F93CF93DF93A5
:103940001F921F92CDB7DEB7FC0124852830E0F42A
:103950008C0180E591E00E940E0422E030E0AE018F
:103960004F5F5F4F60E170E0F80184850E94D915D8
:1039700089819A819827892798270F900F90DF9146
:10398000CF911F910F91089590E080E0F6CF0F93B3
:103990001F93CF93DF931F921F92CDB7DEB7FC0129
:1039A00024852830E0F48C0180E591E00E940E042B
:1039B00022E030E0AE014F5F5F4F64E070E0F8015D
:1039C00084850E94D91589819A819827892798270B
:1039D0000F900F90DF91CF911F910F91089590E07C
:1039E00080E0F6CF2091C9133091CA138217930754
:1039F0005CF04091C7135091C813420F531FFC0154
:103A0000B4964E175F074CF484EE9BE290934B16EE
:103A100080934A1690E080E00895821B930B880FF4
:103A2000991FA091D313B091D413A80FB91F88E4A4
:103A3000FB0101900D928A95E1F781E090E00895F5
:103A40000F931F93CF93DF9300D000D01F921F924C
:103A5000CDB7DEB78C01D80159964D915C915A973C
:103A60004115510551F0ED91FC91048CF58DE02D3F
:103A700070E060E0C8011995EECFF801808D0E94DA
:103A8000DA18892BB1F148E050E0BE016F5F7F4F3B
:103A9000D80158968C910E94DF1918161906F4F473
:103AA000D801509684E0FE01319601900D928A95DE
:103AB000E1F78D8190E0982F88272E81820F911D4C
:103AC000F801958B848B8F81282F30E0322F2227AD
:103AD0008885820F932F911D928F818F28960FB624
:103AE000F894DEBF0FBECDBFDF91CF911F910F9134
:103AF000089590E080E0F2CF4F925F926F927F92B4
:103B00008F929F92AF92BF92CF92DF92EF92FF92ED
:103B10000F931F93CF93DF93CDB7DEB763970FB6A5
:103B2000F894DEBF0FBECDBF7C016B013A01FB01F3
:103B300020E090E080E06AE03191332309F461C035
:103B400040ED430F4A3008F04DC0689FA001699FC7
:103B5000500D1124CA01C097830F911D37FD9A950E
:103B60008F3F910549F340F3F7014281538164810E
:103B7000758180913E1190913F11A0914011B091BB
:103B80004111481759076A077B0709F40DC28701DD
:103B9000085F1F4F0E94F1066F7077277C5FC80196
:103BA0000E94D21B813009F004C28CE193E09A8319
:103BB0008983F70182819381A481B5818B839C8362
:103BC000AD83BE8345E350E0BE016F5F7F4FC80108
:103BD0000E94C508892BA9F5D12CC12CC8010E94CF
:103BE000061517C03E3209F0BFCF233009F4BCCF11
:103BF000D301A20FB11D12968C932F5F90E080E04D
:103C00009BCF233009F0B0CFF3018583CC24C3943C
:103C1000D12CC60163960FB6F894DEBF0FBECDBFA0
:103C2000DF91CF911F910F91FF90EF90DF90CF9098
:103C3000BF90AF909F908F907F906F905F904F90CC
:103C400008950E94F106F7017783668342E050E011
:103C5000B7016A5F7F4FC8010E946B1881E090E056
:103C60009A83898342E050E0BE016F5F7F4FC801B5
:103C70000E946B1880E091E09A83898342E050E0D3
:103C8000BE016F5F7F4FC8010E946B181A821982B4
:103C900042E050E0BE016F5F7F4FC8010E946B1889
:103CA00042E050E0BE016F5F7F4FC8010E946B1879
:103CB00042E050E0BE016F5F7F4FC8010E946B1869
:103CC0005601F6018081882301F16501F601819199
:103CD0002F01882311F08E32B1F446018A189B0817
:103CE0001814190474F48D8641E050E0BE01635F3E
:103CF0007F4FC8010E946B18A401B501C8010E9442
:103D00006B185201DECF6201E1CF1D8641E050E029
:103D1000BE01635F7F4FC8010E946B18C12CDD2478
:103D2000D394DA82C98242E050E0BE016F5F7F4FD8
:103D3000C8010E946B18DA82C98242E050E0BE01DD
:103D40006F5F7F4FC8010E946B18C8010E94A815C1
:103D5000892B09F441CFF3E0AF2EB12C230122E0EF
:103D6000420E511CD4C0F701428153816481758198
:103D7000808D918DA28DB38D481759076A077B07F7
:103D800009F008C1848D958DC59709F003C181A103
:103D900092A15DEFC52EDD24DA940C970CF4ADC032
:103DA0004CE050E0BE016F5F7F4FC8010E94AE1A29
:103DB0008B819C819827892798279A8B898BF7017B
:103DC0004681578129813A814217530709F0E7C09C
:103DD00097FFE5C08F7092703BEFC32EDD24DA941D
:103DE000892B09F08AC06F80788476246724762432
:103DF0002AEFC22EDD24DA946114710409F47DC027
:103E0000D12CC12C8D819E81982789279827C8168F
:103E1000D906F8F441E050E0BE01635F7F4FC8016E
:103E20000E94AE1A4D85442331F050E070E060E00E
:103E3000C8010E94AE1A8D858111ECCF44E050E09C
:103E400070E060E0C8010E94AE1AFFEFCF1ADF0AEF
:103E5000D9CF912C812C41E050E0BE016D5E7F4FA7
:103E6000C8010E94AE1A4B89842F807C09F06CC077
:103E7000442331F050E070E060E0C8010E94AE1AC7
:103E80008B898111E8CF42E050E0BE01615F7F4F36
:103E9000C8010E94AE1A42E050E0BE01635F7F4F4E
:103EA000C8010E94AE1A44E050E070E060E0C80132
:103EB0000E94AE1A42E050E0BE016F5E7F4FC80123
:103EC0000E94AE1A8F85988949895A898115914037
:103ED00009F043C0CD84DE84DC24CD24DC2481E0E1
:103EE000C816D104D1F54115544009F04AC044E048
:103EF00050E0B201C8010E94AE1A21E0A21AB10836
:103F000009F46CCEFFEFCF16DF0609F067CE0E94F2
:103F1000F1063B014C01C8010E94201D181619062C
:103F20000CF421CF0E94F1066619770988099909D6
:103F3000693873418105910548F562E370E080E0DE
:103F400090E00E94BE06E7CF41E050E070E060E004
:103F5000C8010E94AE1A1B8A93CF542745275427C5
:103F600070E060E0C8010E94AE1AFFEF8F1A9F0A4E
:103F70006814790409F06FCF96EFC92EDD24DA9426
:103F8000BCCFE7EFCE2EDD24DA94B7CFCC24CA9491
:103F9000DC2CB3CF6EEFC62EDD24DA94AECF4CEF1F
:103FA000C42EDD24DA94A9CF8EEFC82EDD24DA9456
:103FB00030CED12CC12C2DCECF92DF92EF92FF923A
:103FC0000F931F93CF93DF93CDB7DEB7AF970FB6A5
:103FD000F894DEBF0FBECDBF7C016A010CE113E097
:103FE0001A8309831C861B8688EE93E0A0E0B0E06C
:103FF0008D879E87AF87B88B87E492E09A87898701
:10400000188F0F8B198E1A8E1B8E1C8E88E089A339
:104010001BA70AA71CA61DA61EA61FA680913211CB
:1040200090913311A0913411B09135118EA39FA3BB
:10403000A8A7B9A78B839C83AD83BE8318861F82F4
:10404000AE01465D5F4FCE0101960E947C1D81301E
:104050009105B1F4D701ED91FC910488F589E02D2B
:104060001DA30CA38CA59DA5AEA5BFA58EA39FA344
:10407000A8A7B9A7A601BE016C5D7F4FC70119951E
:10408000AF960FB6F894DEBF0FBECDBFDF91CF91D4
:104090001F910F91FF90EF90DF90CF900895CF92F6
:1040A000DF92EF92FF920F931F93CF93DF93CDB7E1
:1040B000DEB7AF970FB6F894DEBF0FBECDBF8C0151
:1040C0006B017A018CE193E09A8389831B821C82C5
:1040D0001D821E821C861B8648EE53E060E070E065
:1040E0004D875E876F87788B27E432E03A87298790
:1040F000988F8F8B198E1A8E1B8E1C8E28E029A309
:104100009BA78AA71CA61DA61EA61FA6D8011C96A3
:104110008C91883060F40E941715882321F0F801F3
:1041200084850E94EE1488E0D8011C968C938091BF
:10413000321190913311A0913411B09135118EA3A9
:104140009FA3A8A7B9A78B839C83AD83BE83188642
:104150001F82AE01465D5F4FB601CE0101960E94FF
:104160007C1D0097C1F0D801ED91FC910684F78584
:10417000E02D8CE193E09DA38CA38CA59DA5AEA51D
:10418000BFA58EA39FA3A8A7B9A7A701BE016C5D79
:104190007F4FC8011995AF960FB6F894DEBF0FBEDA
:1041A000CDBFDF91CF911F910F91FF90EF90DF90E6
:1041B000CF900895EF92FF920F931F93CF93DF93C9
:1041C00000D01F92CDB7DEB78C017B01FB01848547
:1041D0008830A8F08CE193E0F8019183808312820B
:1041E000138214821582C8010F900F900F900F90C8
:1041F000DF91CF911F910F91FF90EF90089580E58F
:1042000091E00E940E0424E030E0AE014F5F5F4F6A
:104210006CE070E0F70184850E94D9158CE193E091
:10422000F8019183808389819A81AB81BC818283EB
:104230009383A483B583D7CFCF93DF93EC0164E25C
:1042400070E080912016909121160E94EE4C909380
:10425000211680932016892B49F482EF9DE29093DA
:104260004B1680934A1690E080E036C061E070E023
:1042700080910F16909110160E94F50C2091201637
:104280003091211680910F1690911016009719F415
:1042900086E190E0E4CFAE0164E070E00E943B0F65
:1042A000019609F31092171683E090E090931B1685
:1042B00080931A1682E190E0909323168093221641
:1042C0001092251610922416109227161092261678
:1042D0001092291610922816DF91CF9108950F930E
:1042E0001F93CF93DF93EC0188819981009759F058
:1042F0002A813B812617370730F081E0DF91CF918B
:104300001F910F9108958B016F5F7F4F0E94EE4CBC
:10431000009759F0998388831B830A832C813D8100
:10432000232B59F7FC011082E8CF80E0E7CF0F93F1
:104330001F93CF93DF938C018CE190E00E94C94BD7
:10434000EC018FEF9FEF9B838A831D821C821F826B
:104350001E82188619861A861B8680E291EAA7E0DB
:10436000B0E08C879D87AE87BF87188A198A1A8A22
:104370001B8A8C8B9D8BAE8BBF8B8FEF90E09983CC
:10438000888388E992E0998F888F8CE090E00E9482
:10439000C94BFC019B8F8A8F13861286D801129617
:1043A0004D915D916D917C91159746835783608700
:1043B00071871382128211821082CE01DF91CF9118
:1043C0001F910F9108950F931F9380918D139091DA
:1043D0008E13DC01ED91FC910084F185E02D19959F
:1043E00003970CF4B6C080918D1390918E13DC016D
:1043F000ED91FC910284F385E02D19958093AD1326
:104400000E94F1066093AE137093AF138093B013C4
:104410009093B1138091AD13833201F180918D138C
:1044200090918E13DC01ED91FC910284F385E02DD7
:1044300019958093AD130E94F1060091AE1310916F
:10444000AF132091B0133091B113601B710B820B2D
:10445000930B6536710581059105E0F28091AD13EE
:10446000833209F076C080918D1390918E13DC0118
:10447000ED91FC910284F385E02D19958093B4139E
:104480000E94F1066093AE137093AF138093B01344
:104490009093B11381E08093B21380918D1390912A
:1044A0008E13DC01ED91FC910084F185E02D1995CE
:1044B0002091B41328171906B1F0ACF00E94F10650
:1044C0000091AE131091AF132091B0133091B1133E
:1044D000601B710B820B930B65367105810591058D
:1044E000E0F21092B2138091B213882391F180917F
:1044F0008D1390918E13DC01ED91FC910284F38574
:10450000E02D19958093B313803561F0843521F146
:1045100080938B138091B41380938C131F910F9110
:104520000C940000809187139091881390938A13C4
:104530008093891380918D1390918E13DC01ED91FE
:10454000FC910284F385E02D199590938813809354
:1045500087131F910F91089580918D1390918E1361
:10456000DC01ED91FC910284F385E02D1995FC01AD
:10457000FF27E333F10568F78827EE53FD4D8F4F92
:104580000C94C14BF522F922FD22012305230923B6
:104590000D231123152319231D232123252329232B
:1045A0002D233123352339233D234123452349231B
:1045B0004D235123552359235D236123652369230B
:1045C0006D237123752379237D23812385238923FB
:1045D0008D239123952399239D23A123A523A923EB
:1045E000AD23B123B523B923BD231F910F910C94A3
:1045F00000001F910F910C9400001F910F910C94DB
:1046000000001F910F910C9400001F910F910C94CA
:1046100000001F910F910C9400001F910F910C94BA
:1046200000001F910F910C9400001F910F910C94AA
:1046300000001F910F910C9400001F910F910C949A
:1046400000001F910F910C9400001F910F910C948A
:1046500000001F910F910C9400001F910F910C947A
:1046600000001F910F910C9400001F910F910C946A
:1046700000001F910F910C9400001F910F910C945A
:1046800000001F910F910C9400001F910F910C944A
:1046900000001F910F910C9400001F910F910C943A
:1046A00000001F910F910C9400001F910F910C942A
:1046B00000001F910F910C9400001F910F910C941A
:1046C00000001F910F910C9400001F910F910C940A
:1046D00000001F910F910C9400001F910F910C94FA
:1046E00000001F910F910C9400001F910F910C94EA
:1046F00000001F910F910C9400001F910F910C94DA
:1047000000001F910F910C9400001F910F910C94C9
:1047100000001F910F910C9400001F910F910C94B9
:1047200000001F910F910C9400001F910F910C94A9
:1047300000001F910F910C9400001F910F910C9499
:1047400000001F910F910C9400001F910F910C9489
:1047500000001F910F910C9400001F910F910C9479
:1047600000001F910F910C9400001F910F910C9469
:1047700000001F910F910C9400001F910F910C9459
:104780000000CF93DF93EC0188819981009711F0AD
:104790000E94654C198218821D821C821B821A821B
:1047A000DF91CF910895FC0180819181009711F0F4
:1047B0000C94654C0895CF93DF93EC018A8D9B8D0B
:1047C0000E94654CCE01DF91CF910C94654C0C9406
:1047D000DB23CF93DF93EC0188E093E09983888318
:1047E0008C899D89009711F00E94654C8E899F8964
:1047F000009711F00E94654C888D998D009711F0FB
:104800000E94654C8A8D9B8D009711F00E94654C2B
:104810008A819B81009721F0DF91CF910C94CC0C81
:10482000DF91CF91089522E133E0FC0131832083B1
:104830000C94E923CF93DF93EC010E941324CE0163
:10484000DF91CF910C94654C24ED32E0FC01318373
:1048500020830C94E923CF93DF93EC010E9424245E
:10486000CE01DF91CF910C94654CCF93DF93EC0197
:104870008EED92E0998388838B899C89009711F053
:104880000E94654C8A819B81009721F0DF91CF9136
:104890000C94CC0CDF91CF910895CF93DF93EC0172
:1048A0000E943524CE01DF91CF910C94654C26EE09
:1048B00032E0FC01318320830C943524CF93DF93C5
:1048C000EC010E945724CE01DF91CF910C94654CEE
:1048D0000E94CF4D0F931F93F801DC018D919C91A5
:1048E0008F3F980711F40E94CF4D808361835283DC
:1048F00043833483258386E090E01F910F910895D0
:10490000EF92FF920F931F93CF93DF93EC018617E3
:10491000970781F0FB01008111810115110539F024
:10492000E480F580B7010E946F2181110BC0CE0198
:104930000E94C123CE01DF91CF911F910F91FF9073
:10494000EF900895FD82EC82B801888199810E94E0
:10495000E44DF0CFFC011182108213821282158285
:1049600014820C948024EF92FF920F931F93CF93A5
:10497000DF93EC017B01198218821B821A821D824F
:104980001C82FB0101900020E9F731978F01061B83
:10499000170BB8010E946F21811109C0CE01DF9170
:1049A000CF911F910F91FF90EF900C94C1231D8325
:1049B0000C83B70188819981DF91CF911F910F916D
:1049C000FF90EF900C94E44DFB0101900020E9F77B
:1049D0003197AF01461B570BDC01ED91FC91028032
:1049E000F381E02D19948F929F92AF92BF92EF9234
:1049F000FF920F931F93CF93DF93CDB7DEB7A197AD
:104A00000FB6F894DEBF0FBECDBF7C01FA01CB011B
:104A100019A2223008F42AE08E010F5D1F4F822E6A
:104A2000912CB12CA12CBF01A50194010E94904BA7
:104A3000F901CA016A300CF5605DD8016E938D01F1
:104A4000232B242B252B79F790E080E0109721F081
:104A5000BD01C7010E94E424A1960FB6F894DEBF01
:104A60000FBECDBFDF91CF911F910F91FF90EF90BF
:104A7000BF90AF909F908F900895695CDECF8F922A
:104A80009F92AF92BF92CF92DF92EF92FF920F93DD
:104A90001F93CF93DF937C01EB016C0182E0C80E82
:104AA000D11C4701E5E08E0E911C10E000E0F601FC
:104AB00041916F0150E070E060E02AE0CE010E9479
:104AC000F3245C01E881F9810190F081E02D6EE230
:104AD000CE0119958A0D9B1D080F191FC814D90402
:104AE00031F7F701458150E070E060E02AE0CE0147
:104AF0000E94F324800F911FDF91CF911F910F919E
:104B0000FF90EF90DF90CF90BF90AF909F908F90ED
:104B10000895CF92DF92EF92FF92CF93DF936A01D5
:104B20007B01BC018FE893E10E948024C7E8D3E1B8
:104B3000CE86DF86E88AF98A8E819F814C855D85E5
:104B400068857985DC01ED91FC910280F381E02D8F
:104B500019956EE273E08E819F810E94E4244E8558
:104B60005F85688979892AE08E819F810E94F3247C
:104B700060E373E08E819F81DF91CF91FF90EF9092
:104B8000DF90CF900C94E424CF93DF93BC0185E7B2
:104B900090E10E94E424EC0164E373E085E790E196
:104BA0000E94E4248C0F9D1FDF91CF9108958F9276
:104BB0009F92AF92BF92CF92DF92EF92FF920F93AC
:104BC0001F93CF93DF9300D000D0CDB7DEB79B010A
:104BD000AC01A6E0B0E00E94854B6B017C019C011A
:104BE0008B010650110921093109000F111FF8012D
:104BF000E15FF34F808191816BEE73E1019711F0DA
:104C00000C941531CE0101960E94AA2441E050E097
:104C100060E070E0CE0101960E948925CE010196E8
:104C20000E94D32362E070E080E090E00E94BE0624
:104C3000F801E152F14F808191816DEF73E10197AD
:104C400011F00C941E31CE0101960E94AA2441E07D
:104C500050E060E070E0CE0101960E948925CE010F
:104C600001960E94D32362E070E080E090E00E9411
:104C7000BE06F801E157F14F8081918163E074E154
:104C8000019711F00C942731CE0101960E94AA24BD
:104C900041E050E060E070E0CE0101960E9489257D
:104CA000CE0101960E94D32362E070E080E090E0A4
:104CB0000E94BE06F801E15CF14F8081918169E0BC
:104CC00074E1019711F00C943031CE0101960E94ED
:104CD000AA2441E050E060E070E0CE0101960E941D
:104CE0008925CE0101960E94D32362E070E080E026
:104CF00090E00E94BE06F801E153F04F8080918061
:104D0000B12CA12C61EF73E1CE0101960E94AA247F
:104D1000B501A401CE0101960E948925CE0101961C
:104D20000E94D32362E070E080E090E00E94BE0623
:104D3000F801E15DF04F80809180B12CA12C67EFEC
:104D400073E1CE0101960E94AA24B501A401CE010F
:104D500001960E948925CE0101960E94D32362E02C
:104D600070E080E090E00E94BE06F801E159F44F47
:104D700080809180B12CA12C6FE074E1CE0101966E
:104D80000E94AA24B501A401CE0101960E948925A2
:104D9000CE0101960E94D32362E070E080E090E0B3
:104DA0000E94BE06F801E156F24F80809180092CE6
:104DB000000CAA08BB0865E174E1CE0101960E94CF
:104DC000AA24B501A401CE0101960E948925CE0135
:104DD00001960E94D32362E070E080E090E00E94A0
:104DE000BE06F801E150F34F80809180092C000C41
:104DF000AA08BB086BE174E1CE0101960E94AA24C7
:104E0000B501A401CE0101960E948925CE0101962B
:104E10000E94D32362E070E080E090E00E94BE0632
:104E2000F801E15AF34F80809180092C000CAA0808
:104E3000BB0861E274E1CE0101960E94AA24B5018B
:104E4000A401CE0101960E948925CE0101960E94FF
:104E5000D32362E070E080E090E00E94BE06F8019B
:104E6000E15EF44F80809180B12CA12C67E274E167
:104E7000CE0101960E94AA24B501A401CE0101969B
:104E80000E948925CE0101960E94D32362E070E042
:104E900080E090E00E94BE06F801E153F54F80806B
:104EA0009180B12CA12C6DE274E1CE0101960E949B
:104EB000AA24B501A401CE0101960E948925CE0144
:104EC00001960E94D32362E070E080E090E00E94AF
:104ED000BE06F801E154F44F80809180B12CA12CE2
:104EE00063E374E1CE0101960E94AA24B501A401F6
:104EF000CE0101960E948925CE0101960E94D323FE
:104F000062E070E080E090E00E94BE0697018601BA
:104F10000550110921093109000F111FF801E15F46
:104F2000F34F8081918169E374E1019711F00C9452
:104F30003931CE0101960E94AA2441E050E060E0A0
:104F400070E0CE0101960E948925CE0101960E9453
:104F5000D32362E070E080E090E00E94BE06F8019A
:104F6000E152F14F808191816BE474E1019711F07E
:104F70000C944231CE0101960E94AA2441E050E0F7
:104F800060E070E0CE0101960E948925CE01019675
:104F90000E94D32362E070E080E090E00E94BE06B1
:104FA000F801E157F14F8081918161E574E101974A
:104FB00011F00C944B31CE0101960E94AA2441E0DD
:104FC00050E060E070E0CE0101960E948925CE019C
:104FD00001960E94D32362E070E080E090E00E949E
:104FE000BE06F801E15CF14F8081918167E574E1D3
:104FF000019711F00C945431CE0101960E94AA241D
:1050000041E050E060E070E0CE0101960E94892509
:10501000CE0101960E94D32362E070E080E090E030
:105020000E94BE06F801E153F04F80809180B12CC0
:10503000A12C6FE374E1CE0101960E94AA24B50170
:10504000A401CE0101960E948925CE0101960E94FD
:10505000D32362E070E080E090E00E94BE06F80199
:10506000E15DF04F80809180B12CA12C65E474E16A
:10507000CE0101960E94AA24B501A401CE01019699
:105080000E948925CE0101960E94D32362E070E040
:1050900080E090E00E94BE06F801E159F44F808064
:1050A0009180B12CA12C6DE574E1CE0101960E9496
:1050B000AA24B501A401CE0101960E948925CE0142
:1050C00001960E94D32362E070E080E090E00E94AD
:1050D000BE06F801E156F24F80809180092C000C49
:1050E000AA08BB0863E674E1CE0101960E94AA24D7
:1050F000B501A401CE0101960E948925CE01019639
:105100000E94D32362E070E080E090E00E94BE063F
:10511000F801E150F34F80809180092C000CAA081F
:10512000BB0869E674E1CE0101960E94AA24B5018C
:10513000A401CE0101960E948925CE0101960E940C
:10514000D32362E070E080E090E00E94BE06F801A8
:10515000E15AF34F80809180092C000CAA08BB080B
:105160006FE674E1CE0101960E94AA24B501A40164
:10517000CE0101960E948925CE0101960E94D3237B
:1051800062E070E080E090E00E94BE06F801E15E1F
:10519000F44F80809180B12CA12C65E774E1CE01A1
:1051A00001960E94AA24B501A401CE0101960E9495
:1051B0008925CE0101960E94D32362E070E080E051
:1051C00090E00E94BE06F801E153F54F8080918087
:1051D000B12CA12C6BE774E1CE0101960E94AA24A8
:1051E000B501A401CE0101960E948925CE01019648
:1051F0000E94D32362E070E080E090E00E94BE064F
:10520000F801E154F44F80809180B12CA12C61E829
:1052100074E1CE0101960E94AA24B501A401CE0139
:1052200001960E948925CE0101960E94D32362E057
:1052300070E080E090E00E94BE0697018601045075
:10524000110921093109000F111FF801E15FF34F26
:105250008081918167E874E1019711F00C945D31D0
:10526000CE0101960E94AA2441E050E060E070E087
:10527000CE0101960E948925CE0101960E94D3237A
:1052800062E070E080E090E00E94BE06F801E1522A
:10529000F14F8081918169E974E1019711F00C94DB
:1052A0006631CE0101960E94AA2441E050E060E000
:1052B00070E0CE0101960E948925CE0101960E94E0
:1052C000D32362E070E080E090E00E94BE06F80127
:1052D000E157F14F808191816FE974E1019711F0FD
:1052E0000C946F31CE0101960E94AA2441E050E057
:1052F00060E070E0CE0101960E948925CE01019602
:105300000E94D32362E070E080E090E00E94BE063D
:10531000F801E15CF14F8081918165EA74E10197C8
:1053200009F0E5C7CE0101960E94AA2441E050E0B1
:1053300060E070E0CE0101960E948925CE010196C1
:105340000E94D32362E070E080E090E00E94BE06FD
:10535000F801E153F04F80809180B12CA12C6DE8D1
:1053600074E1CE0101960E94AA24B501A401CE01E8
:1053700001960E948925CE0101960E94D32362E006
:1053800070E080E090E00E94BE06F801E15DF04F21
:1053900080809180B12CA12C63E974E1CE0101964B
:1053A0000E94AA24B501A401CE0101960E9489257C
:1053B000CE0101960E94D32362E070E080E090E08D
:1053C0000E94BE06F801E159F44F80809180B12C13
:1053D000A12C6BEA74E1CE0101960E94AA24B501CA
:1053E000A401CE0101960E948925CE0101960E945A
:1053F000D32362E070E080E090E00E94BE06F801F6
:10540000E156F24F80809180092C000CAA08BB085D
:1054100061EB74E1CE0101960E94AA24B501A401BA
:10542000CE0101960E948925CE0101960E94D323C8
:1054300062E070E080E090E00E94BE06F801E1507A
:10544000F34F80809180092C000CAA08BB0867EB01
:1054500074E1CE0101960E94AA24B501A401CE01F7
:1054600001960E948925CE0101960E94D32362E015
:1054700070E080E090E00E94BE06F801E15AF34F30
:1054800080809180092C000CAA08BB086DEB74E1A8
:10549000CE0101960E94AA24B501A401CE01019675
:1054A0000E948925CE0101960E94D32362E070E01C
:1054B00080E090E00E94BE06F801E15EF44F80803B
:1054C0009180B12CA12C63EC74E1CE0101960E9475
:1054D000AA24B501A401CE0101960E948925CE011E
:1054E00001960E94D32362E070E080E090E00E9489
:1054F000BE06F801E153F54F80809180B12CA12CBC
:1055000069EC74E1CE0101960E94AA24B501A401C0
:10551000CE0101960E948925CE0101960E94D323D7
:1055200062E070E080E090E00E94BE06F801E15485
:10553000F44F80809180B12CA12C6FEC74E1CE01EE
:1055400001960E94AA24B501A401CE0101960E94F1
:105550008925CE0101960E94D32362E070E080E0AD
:1055600090E00E94BE0697018601035011092109AF
:105570003109000F111FF801E15FF34F8081918124
:1055800065ED74E1019709F0BAC6CE0101960E945B
:10559000AA2441E050E060E070E0CE0101960E9454
:1055A0008925CE0101960E94D32362E070E080E05D
:1055B00090E00E94BE06F801E152F14F8081918196
:1055C00067EE74E1019709F0A2C6CE0101960E9430
:1055D000AA2441E050E060E070E0CE0101960E9414
:1055E0008925CE0101960E94D32362E070E080E01D
:1055F00090E00E94BE06F801E157F14F8081918151
:105600006DEE74E1019709F08AC6CE0101960E9401
:10561000AA2441E050E060E070E0CE0101960E94D3
:105620008925CE0101960E94D32362E070E080E0DC
:1056300090E00E94BE06F801E15CF14F808191810B
:1056400063EF74E1019709F072C6CE0101960E94E2
:10565000AA2441E050E060E070E0CE0101960E9493
:105660008925CE0101960E94D32362E070E080E09C
:1056700090E00E94BE06F801E153F04F80809180D7
:10568000B12CA12C6BED74E1CE0101960E94AA24ED
:10569000B501A401CE0101960E948925CE01019693
:1056A0000E94D32362E070E080E090E00E94BE069A
:1056B000F801E15DF04F80809180B12CA12C61EE6A
:1056C00074E1CE0101960E94AA24B501A401CE0185
:1056D00001960E948925CE0101960E94D32362E0A3
:1056E00070E080E090E00E94BE06F801E159F44FBE
:1056F00080809180B12CA12C69EF74E1CE010196DC
:105700000E94AA24B501A401CE0101960E94892518
:10571000CE0101960E94D32362E070E080E090E029
:105720000E94BE06F801E156F24F80809180092C5C
:10573000000CAA08BB086FEF74E1CE0101960E942D
:10574000AA24B501A401CE0101960E948925CE01AB
:1057500001960E94D32362E070E080E090E00E9416
:10576000BE06F801E150F34F80809180092C000CB7
:10577000AA08BB0865E075E1CE0101960E94AA2443
:10578000B501A401CE0101960E948925CE010196A2
:105790000E94D32362E070E080E090E00E94BE06A9
:1057A000F801E15AF34F80809180092C000CAA087F
:1057B000BB086BE075E1CE0101960E94AA24B501F9
:1057C000A401CE0101960E948925CE0101960E9476
:1057D000D32362E070E080E090E00E94BE06F80112
:1057E000E15EF44F80809180B12CA12C61E175E1E4
:1057F000CE0101960E94AA24B501A401CE01019612
:105800000E948925CE0101960E94D32362E070E0B8
:1058100080E090E00E94BE06F801E153F54F8080E1
:105820009180B12CA12C67E175E1CE0101960E9417
:10583000AA24B501A401CE0101960E948925CE01BA
:1058400001960E94D32362E070E080E090E00E9425
:10585000BE06F801E154F44F80809180B12CA12C58
:105860006DE175E1CE0101960E94AA24B501A40163
:10587000CE0101960E948925CE0101960E94D32374
:1058800062E070E080E090E00E94BE069701860131
:105890000250110921093109000F111FF801E15FC0
:1058A000F34F8081918163E275E1019709F047C56B
:1058B000CE0101960E94AA2441E050E060E070E031
:1058C000CE0101960E948925CE0101960E94D32324
:1058D00062E070E080E090E00E94BE06F801E152D4
:1058E000F14F8081918165E375E1019709F02FC542
:1058F000CE0101960E94AA2441E050E060E070E0F1
:10590000CE0101960E948925CE0101960E94D323E3
:1059100062E070E080E090E00E94BE06F801E1578E
:10592000F14F808191816BE375E1019709F017C513
:10593000CE0101960E94AA2441E050E060E070E0B0
:10594000CE0101960E948925CE0101960E94D323A3
:1059500062E070E080E090E00E94BE06F801E15C49
:10596000F14F8081918161E475E1019709F0FFC4F5
:10597000CE0101960E94AA2441E050E060E070E070
:10598000CE0101960E948925CE0101960E94D32363
:1059900062E070E080E090E00E94BE06F801E15312
:1059A000F04F80809180B12CA12C69E275E1CE018D
:1059B00001960E94AA24B501A401CE0101960E947D
:1059C0008925CE0101960E94D32362E070E080E039
:1059D00090E00E94BE06F801E15DF04F808091806A
:1059E000B12CA12C6FE275E1CE0101960E94AA2490
:1059F000B501A401CE0101960E948925CE01019630
:105A00000E94D32362E070E080E090E00E94BE0636
:105A1000F801E159F44F80809180B12CA12C67E40A
:105A200075E1CE0101960E94AA24B501A401CE0120
:105A300001960E948925CE0101960E94D32362E03F
:105A400070E080E090E00E94BE06F801E156F24F5F
:105A500080809180092C000CAA08BB086DE475E1D8
:105A6000CE0101960E94AA24B501A401CE0101969F
:105A70000E948925CE0101960E94D32362E070E046
:105A800080E090E00E94BE06F801E150F34F808074
:105A90009180092C000CAA08BB0863E575E1CE01D2
:105AA00001960E94AA24B501A401CE0101960E948C
:105AB0008925CE0101960E94D32362E070E080E048
:105AC00090E00E94BE06F801E15AF34F8080918079
:105AD000092C000CAA08BB0869E575E1CE01019606
